{
  "_format": "hh-sol-artifact-1",
  "contractName": "Domains",
  "sourceName": "contracts/DomainsNFT.sol",
  "abi": [
    {
      "inputs": [
        {
          "internalType": "string",
          "name": "_tld",
          "type": "string"
        }
      ],
      "stateMutability": "payable",
      "type": "constructor"
    },
    {
      "inputs": [],
      "name": "AlreadyRegistered",
      "type": "error"
    },
    {
      "inputs": [
        {
          "internalType": "string",
          "name": "name",
          "type": "string"
        }
      ],
      "name": "InvalidName",
      "type": "error"
    },
    {
      "inputs": [],
      "name": "NotOwner",
      "type": "error"
    },
    {
      "anonymous": false,
      "inputs": [
        {
          "indexed": true,
          "internalType": "address",
          "name": "owner",
          "type": "address"
        },
        {
          "indexed": true,
          "internalType": "address",
          "name": "approved",
          "type": "address"
        },
        {
          "indexed": true,
          "internalType": "uint256",
          "name": "tokenId",
          "type": "uint256"
        }
      ],
      "name": "Approval",
      "type": "event"
    },
    {
      "anonymous": false,
      "inputs": [
        {
          "indexed": true,
          "internalType": "address",
          "name": "owner",
          "type": "address"
        },
        {
          "indexed": true,
          "internalType": "address",
          "name": "operator",
          "type": "address"
        },
        {
          "indexed": false,
          "internalType": "bool",
          "name": "approved",
          "type": "bool"
        }
      ],
      "name": "ApprovalForAll",
      "type": "event"
    },
    {
      "anonymous": false,
      "inputs": [
        {
          "indexed": true,
          "internalType": "address",
          "name": "from",
          "type": "address"
        },
        {
          "indexed": true,
          "internalType": "address",
          "name": "to",
          "type": "address"
        },
        {
          "indexed": true,
          "internalType": "uint256",
          "name": "tokenId",
          "type": "uint256"
        }
      ],
      "name": "Transfer",
      "type": "event"
    },
    {
      "inputs": [
        {
          "internalType": "address",
          "name": "to",
          "type": "address"
        },
        {
          "internalType": "uint256",
          "name": "tokenId",
          "type": "uint256"
        }
      ],
      "name": "approve",
      "outputs": [],
      "stateMutability": "nonpayable",
      "type": "function"
    },
    {
      "inputs": [
        {
          "internalType": "address",
          "name": "owner",
          "type": "address"
        }
      ],
      "name": "balanceOf",
      "outputs": [
        {
          "internalType": "uint256",
          "name": "",
          "type": "uint256"
        }
      ],
      "stateMutability": "view",
      "type": "function"
    },
    {
      "inputs": [
        {
          "internalType": "string",
          "name": "",
          "type": "string"
        }
      ],
      "name": "domainToOwner",
      "outputs": [
        {
          "internalType": "address",
          "name": "",
          "type": "address"
        }
      ],
      "stateMutability": "view",
      "type": "function"
    },
    {
      "inputs": [
        {
          "internalType": "string",
          "name": "name",
          "type": "string"
        }
      ],
      "name": "getAddress",
      "outputs": [
        {
          "internalType": "address",
          "name": "",
          "type": "address"
        }
      ],
      "stateMutability": "view",
      "type": "function"
    },
    {
      "inputs": [],
      "name": "getAllNames",
      "outputs": [
        {
          "internalType": "string[]",
          "name": "",
          "type": "string[]"
        }
      ],
      "stateMutability": "view",
      "type": "function"
    },
    {
      "inputs": [
        {
          "internalType": "uint256",
          "name": "tokenId",
          "type": "uint256"
        }
      ],
      "name": "getApproved",
      "outputs": [
        {
          "internalType": "address",
          "name": "",
          "type": "address"
        }
      ],
      "stateMutability": "view",
      "type": "function"
    },
    {
      "inputs": [],
      "name": "getDomain",
      "outputs": [
        {
          "internalType": "string",
          "name": "",
          "type": "string"
        }
      ],
      "stateMutability": "view",
      "type": "function"
    },
    {
      "inputs": [],
      "name": "getDomains",
      "outputs": [
        {
          "internalType": "string[]",
          "name": "",
          "type": "string[]"
        }
      ],
      "stateMutability": "view",
      "type": "function"
    },
    {
      "inputs": [],
      "name": "i_owner",
      "outputs": [
        {
          "internalType": "address",
          "name": "",
          "type": "address"
        }
      ],
      "stateMutability": "view",
      "type": "function"
    },
    {
      "inputs": [
        {
          "internalType": "address",
          "name": "owner",
          "type": "address"
        },
        {
          "internalType": "address",
          "name": "operator",
          "type": "address"
        }
      ],
      "name": "isApprovedForAll",
      "outputs": [
        {
          "internalType": "bool",
          "name": "",
          "type": "bool"
        }
      ],
      "stateMutability": "view",
      "type": "function"
    },
    {
      "inputs": [],
      "name": "name",
      "outputs": [
        {
          "internalType": "string",
          "name": "",
          "type": "string"
        }
      ],
      "stateMutability": "view",
      "type": "function"
    },
    {
      "inputs": [
        {
          "internalType": "uint256",
          "name": "",
          "type": "uint256"
        }
      ],
      "name": "names",
      "outputs": [
        {
          "internalType": "string",
          "name": "",
          "type": "string"
        }
      ],
      "stateMutability": "view",
      "type": "function"
    },
    {
      "inputs": [
        {
          "internalType": "uint256",
          "name": "tokenId",
          "type": "uint256"
        }
      ],
      "name": "ownerOf",
      "outputs": [
        {
          "internalType": "address",
          "name": "",
          "type": "address"
        }
      ],
      "stateMutability": "view",
      "type": "function"
    },
    {
      "inputs": [
        {
          "internalType": "address",
          "name": "",
          "type": "address"
        }
      ],
      "name": "ownerToDomain",
      "outputs": [
        {
          "internalType": "string",
          "name": "",
          "type": "string"
        }
      ],
      "stateMutability": "view",
      "type": "function"
    },
    {
      "inputs": [
        {
          "internalType": "address",
          "name": "",
          "type": "address"
        },
        {
          "internalType": "uint256",
          "name": "",
          "type": "uint256"
        }
      ],
      "name": "ownerToDomains",
      "outputs": [
        {
          "internalType": "string",
          "name": "",
          "type": "string"
        }
      ],
      "stateMutability": "view",
      "type": "function"
    },
    {
      "inputs": [
        {
          "internalType": "string",
          "name": "name",
          "type": "string"
        }
      ],
      "name": "price",
      "outputs": [
        {
          "internalType": "uint256",
          "name": "",
          "type": "uint256"
        }
      ],
      "stateMutability": "pure",
      "type": "function"
    },
    {
      "inputs": [
        {
          "internalType": "string",
          "name": "name",
          "type": "string"
        }
      ],
      "name": "register",
      "outputs": [],
      "stateMutability": "payable",
      "type": "function"
    },
    {
      "inputs": [
        {
          "internalType": "address",
          "name": "from",
          "type": "address"
        },
        {
          "internalType": "address",
          "name": "to",
          "type": "address"
        },
        {
          "internalType": "uint256",
          "name": "tokenId",
          "type": "uint256"
        }
      ],
      "name": "safeTransferFrom",
      "outputs": [],
      "stateMutability": "nonpayable",
      "type": "function"
    },
    {
      "inputs": [
        {
          "internalType": "address",
          "name": "from",
          "type": "address"
        },
        {
          "internalType": "address",
          "name": "to",
          "type": "address"
        },
        {
          "internalType": "uint256",
          "name": "tokenId",
          "type": "uint256"
        },
        {
          "internalType": "bytes",
          "name": "_data",
          "type": "bytes"
        }
      ],
      "name": "safeTransferFrom",
      "outputs": [],
      "stateMutability": "nonpayable",
      "type": "function"
    },
    {
      "inputs": [
        {
          "internalType": "address",
          "name": "operator",
          "type": "address"
        },
        {
          "internalType": "bool",
          "name": "approved",
          "type": "bool"
        }
      ],
      "name": "setApprovalForAll",
      "outputs": [],
      "stateMutability": "nonpayable",
      "type": "function"
    },
    {
      "inputs": [
        {
          "internalType": "string",
          "name": "_oldName",
          "type": "string"
        },
        {
          "internalType": "string",
          "name": "_newName",
          "type": "string"
        }
      ],
      "name": "setDomain",
      "outputs": [],
      "stateMutability": "payable",
      "type": "function"
    },
    {
      "inputs": [
        {
          "internalType": "bytes4",
          "name": "interfaceId",
          "type": "bytes4"
        }
      ],
      "name": "supportsInterface",
      "outputs": [
        {
          "internalType": "bool",
          "name": "",
          "type": "bool"
        }
      ],
      "stateMutability": "view",
      "type": "function"
    },
    {
      "inputs": [],
      "name": "symbol",
      "outputs": [
        {
          "internalType": "string",
          "name": "",
          "type": "string"
        }
      ],
      "stateMutability": "view",
      "type": "function"
    },
    {
      "inputs": [],
      "name": "tld",
      "outputs": [
        {
          "internalType": "string",
          "name": "",
          "type": "string"
        }
      ],
      "stateMutability": "view",
      "type": "function"
    },
    {
      "inputs": [
        {
          "internalType": "uint256",
          "name": "tokenId",
          "type": "uint256"
        }
      ],
      "name": "tokenURI",
      "outputs": [
        {
          "internalType": "string",
          "name": "",
          "type": "string"
        }
      ],
      "stateMutability": "view",
      "type": "function"
    },
    {
      "inputs": [
        {
          "internalType": "address",
          "name": "from",
          "type": "address"
        },
        {
          "internalType": "address",
          "name": "to",
          "type": "address"
        },
        {
          "internalType": "uint256",
          "name": "tokenId",
          "type": "uint256"
        }
      ],
      "name": "transferFrom",
      "outputs": [],
      "stateMutability": "nonpayable",
      "type": "function"
    },
    {
      "inputs": [
        {
          "internalType": "string",
          "name": "name",
          "type": "string"
        }
      ],
      "name": "valid",
      "outputs": [
        {
          "internalType": "bool",
          "name": "",
          "type": "bool"
        }
      ],
      "stateMutability": "pure",
      "type": "function"
    },
    {
      "inputs": [],
      "name": "withdraw",
      "outputs": [],
      "stateMutability": "nonpayable",
      "type": "function"
    }
  ],
  "bytecode": "0x60a060405260405180610680016040528061065f815260200162005acd61065f91396009908051906020019062000038929190620002dc565b506040518060400160405280600d81526020017f3c2f746578743e3c2f7376673e00000000000000000000000000000000000000815250600a908051906020019062000086929190620002dc565b506040516200612c3803806200612c8339818101604052810190620000ac919062000529565b6040518060400160405280601781526020017f426974636f696e657261204e616d6520536572766963650000000000000000008152506040518060400160405280600381526020017f424e530000000000000000000000000000000000000000000000000000000000815250816000908051906020019062000130929190620002dc565b50806001908051906020019062000149929190620002dc565b5050503373ffffffffffffffffffffffffffffffffffffffff1660808173ffffffffffffffffffffffffffffffffffffffff16815250508060405160200162000193919062000617565b60405160208183030381529060405260089080519060200190620001b9929190620002dc565b50620002066040518060400160405280601881526020017f2573206e616d652073657276696365206465706c6f7965640000000000000000815250826200020d60201b620020ae1760201c565b506200072f565b620002af8282604051602401620002269291906200068f565b6040516020818303038152906040527f4b5c4277000000000000000000000000000000000000000000000000000000007bffffffffffffffffffffffffffffffffffffffffffffffffffffffff19166020820180517bffffffffffffffffffffffffffffffffffffffffffffffffffffffff8381831617835250505050620002b360201b60201c565b5050565b60008151905060006a636f6e736f6c652e6c6f679050602083016000808483855afa5050505050565b828054620002ea90620006f9565b90600052602060002090601f0160209004810192826200030e57600085556200035a565b82601f106200032957805160ff19168380011785556200035a565b828001600101855582156200035a579182015b82811115620003595782518255916020019190600101906200033c565b5b5090506200036991906200036d565b5090565b5b80821115620003885760008160009055506001016200036e565b5090565b6000604051905090565b600080fd5b600080fd5b600080fd5b600080fd5b6000601f19601f8301169050919050565b7f4e487b7100000000000000000000000000000000000000000000000000000000600052604160045260246000fd5b620003f582620003aa565b810181811067ffffffffffffffff82111715620004175762000416620003bb565b5b80604052505050565b60006200042c6200038c565b90506200043a8282620003ea565b919050565b600067ffffffffffffffff8211156200045d576200045c620003bb565b5b6200046882620003aa565b9050602081019050919050565b60005b838110156200049557808201518184015260208101905062000478565b83811115620004a5576000848401525b50505050565b6000620004c2620004bc846200043f565b62000420565b905082815260208101848484011115620004e157620004e0620003a5565b5b620004ee84828562000475565b509392505050565b600082601f8301126200050e576200050d620003a0565b5b815162000520848260208601620004ab565b91505092915050565b60006020828403121562000542576200054162000396565b5b600082015167ffffffffffffffff8111156200056357620005626200039b565b5b6200057184828501620004f6565b91505092915050565b600081905092915050565b7f2e00000000000000000000000000000000000000000000000000000000000000600082015250565b6000620005bd6001836200057a565b9150620005ca8262000585565b600182019050919050565b600081519050919050565b6000620005ed82620005d5565b620005f981856200057a565b93506200060b81856020860162000475565b80840191505092915050565b60006200062482620005ae565b9150620006328284620005e0565b915081905092915050565b600082825260208201905092915050565b60006200065b82620005d5565b6200066781856200063d565b93506200067981856020860162000475565b6200068481620003aa565b840191505092915050565b60006040820190508181036000830152620006ab81856200064e565b90508181036020830152620006c181846200064e565b90509392505050565b7f4e487b7100000000000000000000000000000000000000000000000000000000600052602260045260246000fd5b600060028204905060018216806200071257607f821691505b60208210811415620007295762000728620006ca565b5b50919050565b60805161537b6200075260003960008181610b680152611773015261537b6000f3fe6080604052600436106101b75760003560e01c806395d89b41116100ec578063c87b56dd1161008a578063f2c298be11610064578063f2c298be1461065d578063f90973a214610679578063fb825e5f146106b6578063fe2c6198146106e1576101b7565b8063c87b56dd146105b8578063dba6335f146105f5578063e985e9c514610620576101b7565b8063b68d1809116100c6578063b68d18091461050b578063b7c29d1e14610536578063b88d4fde14610552578063bf40fac11461057b576101b7565b806395d89b411461047a5780639791c097146104a5578063a22cb465146104e2576101b7565b80633ccfd60b116101595780635c5a96ba116101335780635c5a96ba146103985780636352211e146103d557806370a08231146104125780639101cc651461044f576101b7565b80633ccfd60b1461031b57806342842e0e146103325780634622ab031461035b576101b7565b8063095ea7b311610195578063095ea7b31461026157806323b872dd1461028a5780632d551432146102b357806337dab422146102de576101b7565b806301ffc9a7146101bc57806306fdde03146101f9578063081812fc14610224575b600080fd5b3480156101c857600080fd5b506101e360048036038101906101de91906136f6565b61071e565b6040516101f0919061373e565b60405180910390f35b34801561020557600080fd5b5061020e610800565b60405161021b91906137f2565b60405180910390f35b34801561023057600080fd5b5061024b6004803603810190610246919061384a565b610892565b60405161025891906138b8565b60405180910390f35b34801561026d57600080fd5b50610288600480360381019061028391906138ff565b610917565b005b34801561029657600080fd5b506102b160048036038101906102ac919061393f565b610a2f565b005b3480156102bf57600080fd5b506102c8610a8f565b6040516102d591906137f2565b60405180910390f35b3480156102ea57600080fd5b5061030560048036038101906103009190613ac7565b610b1d565b60405161031291906138b8565b60405180910390f35b34801561032757600080fd5b50610330610b66565b005b34801561033e57600080fd5b506103596004803603810190610354919061393f565b610ca0565b005b34801561036757600080fd5b50610382600480360381019061037d919061384a565b610cc0565b60405161038f91906137f2565b60405180910390f35b3480156103a457600080fd5b506103bf60048036038101906103ba9190613b10565b610d60565b6040516103cc91906137f2565b60405180910390f35b3480156103e157600080fd5b506103fc60048036038101906103f7919061384a565b610e00565b60405161040991906138b8565b60405180910390f35b34801561041e57600080fd5b5061043960048036038101906104349190613b10565b610eb2565b6040516104469190613b4c565b60405180910390f35b34801561045b57600080fd5b50610464610f6a565b6040516104719190613c73565b60405180910390f35b34801561048657600080fd5b5061048f611080565b60405161049c91906137f2565b60405180910390f35b3480156104b157600080fd5b506104cc60048036038101906104c79190613cf5565b611112565b6040516104d9919061373e565b60405180910390f35b3480156104ee57600080fd5b5061050960048036038101906105049190613d6e565b6111c6565b005b34801561051757600080fd5b506105206111dc565b60405161052d91906137f2565b60405180910390f35b610550600480360381019061054b9190613dae565b611244565b005b34801561055e57600080fd5b5061057960048036038101906105749190613ed0565b611572565b005b34801561058757600080fd5b506105a2600480360381019061059d9190613cf5565b6115d4565b6040516105af91906138b8565b60405180910390f35b3480156105c457600080fd5b506105df60048036038101906105da919061384a565b61161f565b6040516105ec91906137f2565b60405180910390f35b34801561060157600080fd5b5061060a611771565b60405161061791906138b8565b60405180910390f35b34801561062c57600080fd5b5061064760048036038101906106429190613f53565b611795565b604051610654919061373e565b60405180910390f35b61067760048036038101906106729190613cf5565b611829565b005b34801561068557600080fd5b506106a0600480360381019061069b91906138ff565b611d71565b6040516106ad91906137f2565b60405180910390f35b3480156106c257600080fd5b506106cb611e2a565b6040516106d89190613c73565b60405180910390f35b3480156106ed57600080fd5b5061070860048036038101906107039190613cf5565b612008565b6040516107159190613b4c565b60405180910390f35b60007f80ac58cd000000000000000000000000000000000000000000000000000000007bffffffffffffffffffffffffffffffffffffffffffffffffffffffff1916827bffffffffffffffffffffffffffffffffffffffffffffffffffffffff191614806107e957507f5b5e139f000000000000000000000000000000000000000000000000000000007bffffffffffffffffffffffffffffffffffffffffffffffffffffffff1916827bffffffffffffffffffffffffffffffffffffffffffffffffffffffff1916145b806107f957506107f88261214a565b5b9050919050565b60606000805461080f90613fc2565b80601f016020809104026020016040519081016040528092919081815260200182805461083b90613fc2565b80156108885780601f1061085d57610100808354040283529160200191610888565b820191906000526020600020905b81548152906001019060200180831161086b57829003601f168201915b5050505050905090565b600061089d826121b4565b6108dc576040517f08c379a00000000000000000000000000000000000000000000000000000000081526004016108d390614066565b60405180910390fd5b6004600083815260200190815260200160002060009054906101000a900473ffffffffffffffffffffffffffffffffffffffff169050919050565b600061092282610e00565b90508073ffffffffffffffffffffffffffffffffffffffff168373ffffffffffffffffffffffffffffffffffffffff161415610993576040517f08c379a000000000000000000000000000000000000000000000000000000000815260040161098a906140f8565b60405180910390fd5b8073ffffffffffffffffffffffffffffffffffffffff166109b2612220565b73ffffffffffffffffffffffffffffffffffffffff1614806109e157506109e0816109db612220565b611795565b5b610a20576040517f08c379a0000000000000000000000000000000000000000000000000000000008152600401610a179061418a565b60405180910390fd5b610a2a8383612228565b505050565b610a40610a3a612220565b826122e1565b610a7f576040517f08c379a0000000000000000000000000000000000000000000000000000000008152600401610a769061421c565b60405180910390fd5b610a8a8383836123bf565b505050565b60088054610a9c90613fc2565b80601f0160208091040260200160405190810160405280929190818152602001828054610ac890613fc2565b8015610b155780601f10610aea57610100808354040283529160200191610b15565b820191906000526020600020905b815481529060010190602001808311610af857829003601f168201915b505050505081565b600b818051602081018201805184825260208301602085012081835280955050505050506000915054906101000a900473ffffffffffffffffffffffffffffffffffffffff1681565b7f000000000000000000000000000000000000000000000000000000000000000073ffffffffffffffffffffffffffffffffffffffff163373ffffffffffffffffffffffffffffffffffffffff1614610beb576040517f30cd747100000000000000000000000000000000000000000000000000000000815260040160405180910390fd5b600047905060003373ffffffffffffffffffffffffffffffffffffffff1682604051610c169061426d565b60006040518083038185875af1925050503d8060008114610c53576040519150601f19603f3d011682016040523d82523d6000602084013e610c58565b606091505b5050905080610c9c576040517f08c379a0000000000000000000000000000000000000000000000000000000008152600401610c93906142ce565b60405180910390fd5b5050565b610cbb83838360405180602001604052806000815250611572565b505050565b600d6020528060005260406000206000915090508054610cdf90613fc2565b80601f0160208091040260200160405190810160405280929190818152602001828054610d0b90613fc2565b8015610d585780601f10610d2d57610100808354040283529160200191610d58565b820191906000526020600020905b815481529060010190602001808311610d3b57829003601f168201915b505050505081565b600c6020528060005260406000206000915090508054610d7f90613fc2565b80601f0160208091040260200160405190810160405280929190818152602001828054610dab90613fc2565b8015610df85780601f10610dcd57610100808354040283529160200191610df8565b820191906000526020600020905b815481529060010190602001808311610ddb57829003601f168201915b505050505081565b6000806002600084815260200190815260200160002060009054906101000a900473ffffffffffffffffffffffffffffffffffffffff169050600073ffffffffffffffffffffffffffffffffffffffff168173ffffffffffffffffffffffffffffffffffffffff161415610ea9576040517f08c379a0000000000000000000000000000000000000000000000000000000008152600401610ea090614360565b60405180910390fd5b80915050919050565b60008073ffffffffffffffffffffffffffffffffffffffff168273ffffffffffffffffffffffffffffffffffffffff161415610f23576040517f08c379a0000000000000000000000000000000000000000000000000000000008152600401610f1a906143f2565b60405180910390fd5b600360008373ffffffffffffffffffffffffffffffffffffffff1673ffffffffffffffffffffffffffffffffffffffff168152602001908152602001600020549050919050565b6060600e60003373ffffffffffffffffffffffffffffffffffffffff1673ffffffffffffffffffffffffffffffffffffffff168152602001908152602001600020805480602002602001604051908101604052809291908181526020016000905b82821015611077578382906000526020600020018054610fea90613fc2565b80601f016020809104026020016040519081016040528092919081815260200182805461101690613fc2565b80156110635780601f1061103857610100808354040283529160200191611063565b820191906000526020600020905b81548152906001019060200180831161104657829003601f168201915b505050505081526020019060010190610fcb565b50505050905090565b60606001805461108f90613fc2565b80601f01602080910402602001604051908101604052809291908181526020018280546110bb90613fc2565b80156111085780601f106110dd57610100808354040283529160200191611108565b820191906000526020600020905b8154815290600101906020018083116110eb57829003601f168201915b5050505050905090565b6000600361116384848080601f016020809104026020016040519081016040528093929190818152602001838380828437600081840152601f19601f82011690508083019250505050505050612626565b101580156111be5750600a6111bb84848080601f016020809104026020016040519081016040528093929190818152602001838380828437600081840152601f19601f82011690508083019250505050505050612626565b11155b905092915050565b6111d86111d1612220565b83836127db565b5050565b6060600c60003373ffffffffffffffffffffffffffffffffffffffff1673ffffffffffffffffffffffffffffffffffffffff16815260200190815260200160002060086040516020016112309291906144b1565b604051602081830303815290604052905090565b6000600e60003373ffffffffffffffffffffffffffffffffffffffff1673ffffffffffffffffffffffffffffffffffffffff168152602001908152602001600020805480602002602001604051908101604052809291908181526020016000905b828210156113515783829060005260206000200180546112c490613fc2565b80601f01602080910402602001604051908101604052809291908181526020018280546112f090613fc2565b801561133d5780601f106113125761010080835404028352916020019161133d565b820191906000526020600020905b81548152906001019060200180831161132057829003601f168201915b5050505050815260200190600101906112a5565b50505050905060005b815181101561156a5785856040516020016113769291906144fa565b6040516020818303038152906040528051906020012082828151811061139f5761139e614513565b5b60200260200101516040516020016113b79190614573565b6040516020818303038152906040528051906020012014156115575761149b6040518060400160405280601881526020017f4368616e67696e6720646f6d61696e20257320746f202573000000000000000081525087878080601f016020809104026020016040519081016040528093929190818152602001838380828437600081840152601f19601f8201169050808301925050505050505086868080601f016020809104026020016040519081016040528093929190818152602001838380828437600081840152601f19601f82011690508083019250505050505050612948565b83838080601f016020809104026020016040519081016040528093929190818152602001838380828437600081840152601f19601f820116905080830192505050505050508282815181106114f3576114f2614513565b5b602002602001018190525081600e60003373ffffffffffffffffffffffffffffffffffffffff1673ffffffffffffffffffffffffffffffffffffffff168152602001908152602001600020908051906020019061155192919061349d565b5061156a565b8080611562906145b9565b91505061135a565b505050505050565b61158361157d612220565b836122e1565b6115c2576040517f08c379a00000000000000000000000000000000000000000000000000000000081526004016115b99061421c565b60405180910390fd5b6115ce848484846129e7565b50505050565b6000600b83836040516115e89291906144fa565b908152602001604051809103902060009054906101000a900473ffffffffffffffffffffffffffffffffffffffff16905092915050565b606061162a826121b4565b611669576040517f08c379a000000000000000000000000000000000000000000000000000000000815260040161166090614674565b60405180910390fd5b600060066000848152602001908152602001600020805461168990613fc2565b80601f01602080910402602001604051908101604052809291908181526020018280546116b590613fc2565b80156117025780601f106116d757610100808354040283529160200191611702565b820191906000526020600020905b8154815290600101906020018083116116e557829003601f168201915b505050505090506000611713612a43565b905060008151141561172957819250505061176c565b60008251111561175e578082604051602001611746929190614694565b6040516020818303038152906040529250505061176c565b61176784612a5a565b925050505b919050565b7f000000000000000000000000000000000000000000000000000000000000000081565b6000600560008473ffffffffffffffffffffffffffffffffffffffff1673ffffffffffffffffffffffffffffffffffffffff16815260200190815260200160002060008373ffffffffffffffffffffffffffffffffffffffff1673ffffffffffffffffffffffffffffffffffffffff16815260200190815260200160002060009054906101000a900460ff16905092915050565b600073ffffffffffffffffffffffffffffffffffffffff16600b83836040516118539291906144fa565b908152602001604051809103902060009054906101000a900473ffffffffffffffffffffffffffffffffffffffff1673ffffffffffffffffffffffffffffffffffffffff16146118cf576040517f3a81d6fc00000000000000000000000000000000000000000000000000000000815260040160405180910390fd5b6118d98282611112565b61191c5781816040517f7f19f48d0000000000000000000000000000000000000000000000000000000081526004016119139291906146e5565b60405180910390fd5b60006119288383612008565b90508034101561196d576040517f08c379a000000000000000000000000000000000000000000000000000000000815260040161196490614755565b60405180910390fd5b60008383600860405160200161198593929190614775565b60405160208183030381529060405290506000600982600a6040516020016119af9392919061479b565b604051602081830303815290604052905060006119cc6007612b01565b90506000611a1d87878080601f016020809104026020016040519081016040528093929190818152602001838380828437600081840152601f19601f82011690508083019250505050505050612626565b90506000611a2a82612b0f565b9050611b1e6040518060600160405280603081526020016152d66030913989898080601f016020809104026020016040519081016040528093929190818152602001838380828437600081840152601f19601f8201169050808301925050505050505060088054611a9a90613fc2565b80601f0160208091040260200160405190810160405280929190818152602001828054611ac690613fc2565b8015611b135780601f10611ae857610100808354040283529160200191611b13565b820191906000526020600020905b815481529060010190602001808311611af657829003601f168201915b505050505086612c70565b6000611b5486611b2d87612d12565b84604051602001611b409392919061496e565b604051602081830303815290604052612d12565b9050600081604051602001611b699190614a17565b6040516020818303038152906040529050611b9b60405180606001604052806039815260200161526460399139612eaa565b611bda6040518060400160405280600e81526020017f46696e616c20746f6b656e555249000000000000000000000000000000000000815250826120ae565b611bfb60405180606001604052806039815260200161529d60399139612eaa565b611c053386612f43565b611c0f8582612f61565b33600b8b8b604051611c229291906144fa565b908152602001604051809103902060006101000a81548173ffffffffffffffffffffffffffffffffffffffff021916908373ffffffffffffffffffffffffffffffffffffffff1602179055508989600c60003373ffffffffffffffffffffffffffffffffffffffff1673ffffffffffffffffffffffffffffffffffffffff1681526020019081526020016000209190611cbc9291906134fd565b50600e60003373ffffffffffffffffffffffffffffffffffffffff1673ffffffffffffffffffffffffffffffffffffffff1681526020019081526020016000208a8a90918060018154018082558091505060019003906000526020600020016000909192909192909192909192509190611d379291906134fd565b50611d426007612fd5565b8989600d60008881526020019081526020016000209190611d649291906134fd565b5050505050505050505050565b600e6020528160005260406000208181548110611d8d57600080fd5b90600052602060002001600091509150508054611da990613fc2565b80601f0160208091040260200160405190810160405280929190818152602001828054611dd590613fc2565b8015611e225780601f10611df757610100808354040283529160200191611e22565b820191906000526020600020905b815481529060010190602001808311611e0557829003601f168201915b505050505081565b6060611e6a6040518060400160405280601f81526020017f47657474696e6720616c6c206e616d65732066726f6d20636f6e747261637400815250612eaa565b6000611e766007612b01565b67ffffffffffffffff811115611e8f57611e8e61399c565b5b604051908082528060200260200182016040528015611ec257816020015b6060815260200190600190039081611ead5790505b50905060005b611ed26007612b01565b81101561200057600d60008281526020019081526020016000208054611ef790613fc2565b80601f0160208091040260200160405190810160405280929190818152602001828054611f2390613fc2565b8015611f705780601f10611f4557610100808354040283529160200191611f70565b820191906000526020600020905b815481529060010190602001808311611f5357829003601f168201915b5050505050828281518110611f8857611f87614513565b5b6020026020010181905250611fed6040518060400160405280601781526020017f4e616d6520666f7220746f6b656e20256420697320257300000000000000000081525082848481518110611fe057611fdf614513565b5b6020026020010151612feb565b8080611ff8906145b9565b915050611ec8565b508091505090565b60008061205884848080601f016020809104026020016040519081016040528093929190818152602001838380828437600081840152601f19601f82011690508083019250505050505050612626565b90506000811161206757600080fd5b6003811415612081576706f05b59d3b200009150506120a8565b600481141561209b57670429d069189e00009150506120a8565b67016345785d8a00009150505b92915050565b61214682826040516024016120c4929190614a39565b6040516020818303038152906040527f4b5c4277000000000000000000000000000000000000000000000000000000007bffffffffffffffffffffffffffffffffffffffffffffffffffffffff19166020820180517bffffffffffffffffffffffffffffffffffffffffffffffffffffffff838183161783525050505061308a565b5050565b60007f01ffc9a7000000000000000000000000000000000000000000000000000000007bffffffffffffffffffffffffffffffffffffffffffffffffffffffff1916827bffffffffffffffffffffffffffffffffffffffffffffffffffffffff1916149050919050565b60008073ffffffffffffffffffffffffffffffffffffffff166002600084815260200190815260200160002060009054906101000a900473ffffffffffffffffffffffffffffffffffffffff1673ffffffffffffffffffffffffffffffffffffffff1614159050919050565b600033905090565b816004600083815260200190815260200160002060006101000a81548173ffffffffffffffffffffffffffffffffffffffff021916908373ffffffffffffffffffffffffffffffffffffffff160217905550808273ffffffffffffffffffffffffffffffffffffffff1661229b83610e00565b73ffffffffffffffffffffffffffffffffffffffff167f8c5be1e5ebec7d5bd14f71427d1e84f3dd0314c0f7b2291e5b200ac8c7c3b92560405160405180910390a45050565b60006122ec826121b4565b61232b576040517f08c379a000000000000000000000000000000000000000000000000000000000815260040161232290614ae2565b60405180910390fd5b600061233683610e00565b90508073ffffffffffffffffffffffffffffffffffffffff168473ffffffffffffffffffffffffffffffffffffffff16148061237857506123778185611795565b5b806123b657508373ffffffffffffffffffffffffffffffffffffffff1661239e84610892565b73ffffffffffffffffffffffffffffffffffffffff16145b91505092915050565b8273ffffffffffffffffffffffffffffffffffffffff166123df82610e00565b73ffffffffffffffffffffffffffffffffffffffff1614612435576040517f08c379a000000000000000000000000000000000000000000000000000000000815260040161242c90614b74565b60405180910390fd5b600073ffffffffffffffffffffffffffffffffffffffff168273ffffffffffffffffffffffffffffffffffffffff1614156124a5576040517f08c379a000000000000000000000000000000000000000000000000000000000815260040161249c90614c06565b60405180910390fd5b6124b08383836130b3565b6124bb600082612228565b6001600360008573ffffffffffffffffffffffffffffffffffffffff1673ffffffffffffffffffffffffffffffffffffffff168152602001908152602001600020600082825461250b9190614c26565b925050819055506001600360008473ffffffffffffffffffffffffffffffffffffffff1673ffffffffffffffffffffffffffffffffffffffff16815260200190815260200160002060008282546125629190614c5a565b92505081905550816002600083815260200190815260200160002060006101000a81548173ffffffffffffffffffffffffffffffffffffffff021916908373ffffffffffffffffffffffffffffffffffffffff160217905550808273ffffffffffffffffffffffffffffffffffffffff168473ffffffffffffffffffffffffffffffffffffffff167fddf252ad1be2c89b69c2b068fc378daa952ba7f163c4a11628f55a4df523b3ef60405160405180910390a46126218383836130b8565b505050565b60008060008084519050600092505b808210156127d057600085838151811061265257612651614513565b5b602001015160f81c60f81b9050608060f81b817effffffffffffffffffffffffffffffffffffffffffffffffffffffffffffff191610156126a15760018361269a9190614c5a565b92506127bc565b60e060f81b817effffffffffffffffffffffffffffffffffffffffffffffffffffffffffffff191610156126e3576002836126dc9190614c5a565b92506127bb565b60f060f81b817effffffffffffffffffffffffffffffffffffffffffffffffffffffffffffff191610156127255760038361271e9190614c5a565b92506127ba565b60f8801b817effffffffffffffffffffffffffffffffffffffffffffffffffffffffffffff191610156127665760048361275f9190614c5a565b92506127b9565b60fc60f81b817effffffffffffffffffffffffffffffffffffffffffffffffffffffffffffff191610156127a8576005836127a19190614c5a565b92506127b8565b6006836127b59190614c5a565b92505b5b5b5b5b5082806127c8906145b9565b935050612635565b829350505050919050565b8173ffffffffffffffffffffffffffffffffffffffff168373ffffffffffffffffffffffffffffffffffffffff16141561284a576040517f08c379a000000000000000000000000000000000000000000000000000000000815260040161284190614cfc565b60405180910390fd5b80600560008573ffffffffffffffffffffffffffffffffffffffff1673ffffffffffffffffffffffffffffffffffffffff16815260200190815260200160002060008473ffffffffffffffffffffffffffffffffffffffff1673ffffffffffffffffffffffffffffffffffffffff16815260200190815260200160002060006101000a81548160ff0219169083151502179055508173ffffffffffffffffffffffffffffffffffffffff168373ffffffffffffffffffffffffffffffffffffffff167f17307eab39ab6107e8899845ad3d59bd9653f200f220920489ca2b5937696c318360405161293b919061373e565b60405180910390a3505050565b6129e283838360405160240161296093929190614d1c565b6040516020818303038152906040527f2ced7cef000000000000000000000000000000000000000000000000000000007bffffffffffffffffffffffffffffffffffffffffffffffffffffffff19166020820180517bffffffffffffffffffffffffffffffffffffffffffffffffffffffff838183161783525050505061308a565b505050565b6129f28484846123bf565b6129fe848484846130bd565b612a3d576040517f08c379a0000000000000000000000000000000000000000000000000000000008152600401612a3490614dda565b60405180910390fd5b50505050565b606060405180602001604052806000815250905090565b6060612a65826121b4565b612aa4576040517f08c379a0000000000000000000000000000000000000000000000000000000008152600401612a9b90614e6c565b60405180910390fd5b6000612aae612a43565b90506000815111612ace5760405180602001604052806000815250612af9565b80612ad884612b0f565b604051602001612ae9929190614694565b6040516020818303038152906040525b915050919050565b600081600001549050919050565b60606000821415612b57576040518060400160405280600181526020017f30000000000000000000000000000000000000000000000000000000000000008152509050612c6b565b600082905060005b60008214612b89578080612b72906145b9565b915050600a82612b829190614ebb565b9150612b5f565b60008167ffffffffffffffff811115612ba557612ba461399c565b5b6040519080825280601f01601f191660200182016040528015612bd75781602001600182028036833780820191505090505b5090505b60008514612c6457600182612bf09190614c26565b9150600a85612bff9190614eec565b6030612c0b9190614c5a565b60f81b818381518110612c2157612c20614513565b5b60200101907effffffffffffffffffffffffffffffffffffffffffffffffffffffffffffff1916908160001a905350600a85612c5d9190614ebb565b9450612bdb565b8093505050505b919050565b612d0c84848484604051602401612c8a9493929190614f1d565b6040516020818303038152906040527f9fd009f5000000000000000000000000000000000000000000000000000000007bffffffffffffffffffffffffffffffffffffffffffffffffffffffff19166020820180517bffffffffffffffffffffffffffffffffffffffffffffffffffffffff838183161783525050505061308a565b50505050565b60606000825190506000811415612d3b5760405180602001604052806000815250915050612ea5565b60006003600283612d4c9190614c5a565b612d569190614ebb565b6004612d629190614f77565b90506000602082612d739190614c5a565b67ffffffffffffffff811115612d8c57612d8b61399c565b5b6040519080825280601f01601f191660200182016040528015612dbe5781602001600182028036833780820191505090505b5090506000604051806060016040528060408152602001615306604091399050600181016020830160005b86811015612e625760038101905062ffffff818a015116603f8160121c168401518060081b905060ff603f83600c1c1686015116810190508060081b905060ff603f8360061c1686015116810190508060081b905060ff603f831686015116810190508060e01b90508084526004840193505050612de9565b506003860660018114612e7c5760028114612e8c57612e97565b613d3d60f01b6002830352612e97565b603d60f81b60018303525b508484525050819450505050505b919050565b612f4081604051602401612ebe91906137f2565b6040516020818303038152906040527f41304fac000000000000000000000000000000000000000000000000000000007bffffffffffffffffffffffffffffffffffffffffffffffffffffffff19166020820180517bffffffffffffffffffffffffffffffffffffffffffffffffffffffff838183161783525050505061308a565b50565b612f5d828260405180602001604052806000815250613245565b5050565b612f6a826121b4565b612fa9576040517f08c379a0000000000000000000000000000000000000000000000000000000008152600401612fa090615043565b60405180910390fd5b80600660008481526020019081526020016000209080519060200190612fd0929190613583565b505050565b6001816000016000828254019250508190555050565b61308583838360405160240161300393929190615063565b6040516020818303038152906040527fa3f5c739000000000000000000000000000000000000000000000000000000007bffffffffffffffffffffffffffffffffffffffffffffffffffffffff19166020820180517bffffffffffffffffffffffffffffffffffffffffffffffffffffffff838183161783525050505061308a565b505050565b60008151905060006a636f6e736f6c652e6c6f679050602083016000808483855afa5050505050565b505050565b505050565b60006130de8473ffffffffffffffffffffffffffffffffffffffff166132a0565b15613238578373ffffffffffffffffffffffffffffffffffffffff1663150b7a02613107612220565b8786866040518563ffffffff1660e01b815260040161312994939291906150fd565b6020604051808303816000875af192505050801561316557506040513d601f19601f82011682018060405250810190613162919061515e565b60015b6131e8573d8060008114613195576040519150601f19603f3d011682016040523d82523d6000602084013e61319a565b606091505b506000815114156131e0576040517f08c379a00000000000000000000000000000000000000000000000000000000081526004016131d790614dda565b60405180910390fd5b805181602001fd5b63150b7a0260e01b7bffffffffffffffffffffffffffffffffffffffffffffffffffffffff1916817bffffffffffffffffffffffffffffffffffffffffffffffffffffffff19161491505061323d565b600190505b949350505050565b61324f83836132c3565b61325c60008484846130bd565b61329b576040517f08c379a000000000000000000000000000000000000000000000000000000000815260040161329290614dda565b60405180910390fd5b505050565b6000808273ffffffffffffffffffffffffffffffffffffffff163b119050919050565b600073ffffffffffffffffffffffffffffffffffffffff168273ffffffffffffffffffffffffffffffffffffffff161415613333576040517f08c379a000000000000000000000000000000000000000000000000000000000815260040161332a906151d7565b60405180910390fd5b61333c816121b4565b1561337c576040517f08c379a000000000000000000000000000000000000000000000000000000000815260040161337390615243565b60405180910390fd5b613388600083836130b3565b6001600360008473ffffffffffffffffffffffffffffffffffffffff1673ffffffffffffffffffffffffffffffffffffffff16815260200190815260200160002060008282546133d89190614c5a565b92505081905550816002600083815260200190815260200160002060006101000a81548173ffffffffffffffffffffffffffffffffffffffff021916908373ffffffffffffffffffffffffffffffffffffffff160217905550808273ffffffffffffffffffffffffffffffffffffffff16600073ffffffffffffffffffffffffffffffffffffffff167fddf252ad1be2c89b69c2b068fc378daa952ba7f163c4a11628f55a4df523b3ef60405160405180910390a4613499600083836130b8565b5050565b8280548282559060005260206000209081019282156134ec579160200282015b828111156134eb5782518290805190602001906134db929190613583565b50916020019190600101906134bd565b5b5090506134f99190613609565b5090565b82805461350990613fc2565b90600052602060002090601f01602090048101928261352b5760008555613572565b82601f1061354457803560ff1916838001178555613572565b82800160010185558215613572579182015b82811115613571578235825591602001919060010190613556565b5b50905061357f919061362d565b5090565b82805461358f90613fc2565b90600052602060002090601f0160209004810192826135b157600085556135f8565b82601f106135ca57805160ff19168380011785556135f8565b828001600101855582156135f8579182015b828111156135f75782518255916020019190600101906135dc565b5b509050613605919061362d565b5090565b5b808211156136295760008181613620919061364a565b5060010161360a565b5090565b5b8082111561364657600081600090555060010161362e565b5090565b50805461365690613fc2565b6000825580601f106136685750613687565b601f016020900490600052602060002090810190613686919061362d565b5b50565b6000604051905090565b600080fd5b600080fd5b60007fffffffff0000000000000000000000000000000000000000000000000000000082169050919050565b6136d38161369e565b81146136de57600080fd5b50565b6000813590506136f0816136ca565b92915050565b60006020828403121561370c5761370b613694565b5b600061371a848285016136e1565b91505092915050565b60008115159050919050565b61373881613723565b82525050565b6000602082019050613753600083018461372f565b92915050565b600081519050919050565b600082825260208201905092915050565b60005b83811015613793578082015181840152602081019050613778565b838111156137a2576000848401525b50505050565b6000601f19601f8301169050919050565b60006137c482613759565b6137ce8185613764565b93506137de818560208601613775565b6137e7816137a8565b840191505092915050565b6000602082019050818103600083015261380c81846137b9565b905092915050565b6000819050919050565b61382781613814565b811461383257600080fd5b50565b6000813590506138448161381e565b92915050565b6000602082840312156138605761385f613694565b5b600061386e84828501613835565b91505092915050565b600073ffffffffffffffffffffffffffffffffffffffff82169050919050565b60006138a282613877565b9050919050565b6138b281613897565b82525050565b60006020820190506138cd60008301846138a9565b92915050565b6138dc81613897565b81146138e757600080fd5b50565b6000813590506138f9816138d3565b92915050565b6000806040838503121561391657613915613694565b5b6000613924858286016138ea565b925050602061393585828601613835565b9150509250929050565b60008060006060848603121561395857613957613694565b5b6000613966868287016138ea565b9350506020613977868287016138ea565b925050604061398886828701613835565b9150509250925092565b600080fd5b600080fd5b7f4e487b7100000000000000000000000000000000000000000000000000000000600052604160045260246000fd5b6139d4826137a8565b810181811067ffffffffffffffff821117156139f3576139f261399c565b5b80604052505050565b6000613a0661368a565b9050613a1282826139cb565b919050565b600067ffffffffffffffff821115613a3257613a3161399c565b5b613a3b826137a8565b9050602081019050919050565b82818337600083830152505050565b6000613a6a613a6584613a17565b6139fc565b905082815260208101848484011115613a8657613a85613997565b5b613a91848285613a48565b509392505050565b600082601f830112613aae57613aad613992565b5b8135613abe848260208601613a57565b91505092915050565b600060208284031215613add57613adc613694565b5b600082013567ffffffffffffffff811115613afb57613afa613699565b5b613b0784828501613a99565b91505092915050565b600060208284031215613b2657613b25613694565b5b6000613b34848285016138ea565b91505092915050565b613b4681613814565b82525050565b6000602082019050613b616000830184613b3d565b92915050565b600081519050919050565b600082825260208201905092915050565b6000819050602082019050919050565b600082825260208201905092915050565b6000613baf82613759565b613bb98185613b93565b9350613bc9818560208601613775565b613bd2816137a8565b840191505092915050565b6000613be98383613ba4565b905092915050565b6000602082019050919050565b6000613c0982613b67565b613c138185613b72565b935083602082028501613c2585613b83565b8060005b85811015613c615784840389528151613c428582613bdd565b9450613c4d83613bf1565b925060208a01995050600181019050613c29565b50829750879550505050505092915050565b60006020820190508181036000830152613c8d8184613bfe565b905092915050565b600080fd5b600080fd5b60008083601f840112613cb557613cb4613992565b5b8235905067ffffffffffffffff811115613cd257613cd1613c95565b5b602083019150836001820283011115613cee57613ced613c9a565b5b9250929050565b60008060208385031215613d0c57613d0b613694565b5b600083013567ffffffffffffffff811115613d2a57613d29613699565b5b613d3685828601613c9f565b92509250509250929050565b613d4b81613723565b8114613d5657600080fd5b50565b600081359050613d6881613d42565b92915050565b60008060408385031215613d8557613d84613694565b5b6000613d93858286016138ea565b9250506020613da485828601613d59565b9150509250929050565b60008060008060408587031215613dc857613dc7613694565b5b600085013567ffffffffffffffff811115613de657613de5613699565b5b613df287828801613c9f565b9450945050602085013567ffffffffffffffff811115613e1557613e14613699565b5b613e2187828801613c9f565b925092505092959194509250565b600067ffffffffffffffff821115613e4a57613e4961399c565b5b613e53826137a8565b9050602081019050919050565b6000613e73613e6e84613e2f565b6139fc565b905082815260208101848484011115613e8f57613e8e613997565b5b613e9a848285613a48565b509392505050565b600082601f830112613eb757613eb6613992565b5b8135613ec7848260208601613e60565b91505092915050565b60008060008060808587031215613eea57613ee9613694565b5b6000613ef8878288016138ea565b9450506020613f09878288016138ea565b9350506040613f1a87828801613835565b925050606085013567ffffffffffffffff811115613f3b57613f3a613699565b5b613f4787828801613ea2565b91505092959194509250565b60008060408385031215613f6a57613f69613694565b5b6000613f78858286016138ea565b9250506020613f89858286016138ea565b9150509250929050565b7f4e487b7100000000000000000000000000000000000000000000000000000000600052602260045260246000fd5b60006002820490506001821680613fda57607f821691505b60208210811415613fee57613fed613f93565b5b50919050565b7f4552433732313a20617070726f76656420717565727920666f72206e6f6e657860008201527f697374656e7420746f6b656e0000000000000000000000000000000000000000602082015250565b6000614050602c83613764565b915061405b82613ff4565b604082019050919050565b6000602082019050818103600083015261407f81614043565b9050919050565b7f4552433732313a20617070726f76616c20746f2063757272656e74206f776e6560008201527f7200000000000000000000000000000000000000000000000000000000000000602082015250565b60006140e2602183613764565b91506140ed82614086565b604082019050919050565b60006020820190508181036000830152614111816140d5565b9050919050565b7f4552433732313a20617070726f76652063616c6c6572206973206e6f74206f7760008201527f6e6572206e6f7220617070726f76656420666f7220616c6c0000000000000000602082015250565b6000614174603883613764565b915061417f82614118565b604082019050919050565b600060208201905081810360008301526141a381614167565b9050919050565b7f4552433732313a207472616e736665722063616c6c6572206973206e6f74206f60008201527f776e6572206e6f7220617070726f766564000000000000000000000000000000602082015250565b6000614206603183613764565b9150614211826141aa565b604082019050919050565b60006020820190508181036000830152614235816141f9565b9050919050565b600081905092915050565b50565b600061425760008361423c565b915061426282614247565b600082019050919050565b60006142788261424a565b9150819050919050565b7f4661696c656420746f207769746864726177204d617469630000000000000000600082015250565b60006142b8601883613764565b91506142c382614282565b602082019050919050565b600060208201905081810360008301526142e7816142ab565b9050919050565b7f4552433732313a206f776e657220717565727920666f72206e6f6e657869737460008201527f656e7420746f6b656e0000000000000000000000000000000000000000000000602082015250565b600061434a602983613764565b9150614355826142ee565b604082019050919050565b600060208201905081810360008301526143798161433d565b9050919050565b7f4552433732313a2062616c616e636520717565727920666f7220746865207a6560008201527f726f206164647265737300000000000000000000000000000000000000000000602082015250565b60006143dc602a83613764565b91506143e782614380565b604082019050919050565b6000602082019050818103600083015261440b816143cf565b9050919050565b600081905092915050565b60008190508160005260206000209050919050565b6000815461443f81613fc2565b6144498186614412565b945060018216600081146144645760018114614475576144a8565b60ff198316865281860193506144a8565b61447e8561441d565b60005b838110156144a057815481890152600182019150602081019050614481565b838801955050505b50505092915050565b60006144bd8285614432565b91506144c98284614432565b91508190509392505050565b60006144e18385614412565b93506144ee838584613a48565b82840190509392505050565b60006145078284866144d5565b91508190509392505050565b7f4e487b7100000000000000000000000000000000000000000000000000000000600052603260045260246000fd5b600061454d82613759565b6145578185614412565b9350614567818560208601613775565b80840191505092915050565b600061457f8284614542565b915081905092915050565b7f4e487b7100000000000000000000000000000000000000000000000000000000600052601160045260246000fd5b60006145c482613814565b91507fffffffffffffffffffffffffffffffffffffffffffffffffffffffffffffffff8214156145f7576145f661458a565b5b600182019050919050565b7f45524337323155524953746f726167653a2055524920717565727920666f722060008201527f6e6f6e6578697374656e7420746f6b656e000000000000000000000000000000602082015250565b600061465e603183613764565b915061466982614602565b604082019050919050565b6000602082019050818103600083015261468d81614651565b9050919050565b60006146a08285614542565b91506146ac8284614542565b91508190509392505050565b60006146c48385613764565b93506146d1838584613a48565b6146da836137a8565b840190509392505050565b600060208201905081810360008301526147008184866146b8565b90509392505050565b7f4e6f7420656e6f756768204d6174696320706169640000000000000000000000600082015250565b600061473f601583613764565b915061474a82614709565b602082019050919050565b6000602082019050818103600083015261476e81614732565b9050919050565b60006147828285876144d5565b915061478e8284614432565b9150819050949350505050565b60006147a78286614432565b91506147b38285614542565b91506147bf8284614432565b9150819050949350505050565b7f7b226e616d65223a202200000000000000000000000000000000000000000000600082015250565b6000614802600a83614412565b915061480d826147cc565b600a82019050919050565b7f222c20226465736372697074696f6e223a20224120646f6d61696e206f6e207460008201527f686520424e532028426974636f696e657261204e616d6520536572766963652960208201527f222c2022696d616765223a2022646174613a696d6167652f7376672b786d6c3b60408201527f6261736536342c00000000000000000000000000000000000000000000000000606082015250565b60006148c0606783614412565b91506148cb82614818565b606782019050919050565b7f222c226c656e677468223a220000000000000000000000000000000000000000600082015250565b600061490c600c83614412565b9150614917826148d6565b600c82019050919050565b7f227d000000000000000000000000000000000000000000000000000000000000600082015250565b6000614958600283614412565b915061496382614922565b600282019050919050565b6000614979826147f5565b91506149858286614542565b9150614990826148b3565b915061499c8285614542565b91506149a7826148ff565b91506149b38284614542565b91506149be8261494b565b9150819050949350505050565b7f646174613a6170706c69636174696f6e2f6a736f6e3b6261736536342c000000600082015250565b6000614a01601d83614412565b9150614a0c826149cb565b601d82019050919050565b6000614a22826149f4565b9150614a2e8284614542565b915081905092915050565b60006040820190508181036000830152614a5381856137b9565b90508181036020830152614a6781846137b9565b90509392505050565b7f4552433732313a206f70657261746f7220717565727920666f72206e6f6e657860008201527f697374656e7420746f6b656e0000000000000000000000000000000000000000602082015250565b6000614acc602c83613764565b9150614ad782614a70565b604082019050919050565b60006020820190508181036000830152614afb81614abf565b9050919050565b7f4552433732313a207472616e736665722066726f6d20696e636f72726563742060008201527f6f776e6572000000000000000000000000000000000000000000000000000000602082015250565b6000614b5e602583613764565b9150614b6982614b02565b604082019050919050565b60006020820190508181036000830152614b8d81614b51565b9050919050565b7f4552433732313a207472616e7366657220746f20746865207a65726f2061646460008201527f7265737300000000000000000000000000000000000000000000000000000000602082015250565b6000614bf0602483613764565b9150614bfb82614b94565b604082019050919050565b60006020820190508181036000830152614c1f81614be3565b9050919050565b6000614c3182613814565b9150614c3c83613814565b925082821015614c4f57614c4e61458a565b5b828203905092915050565b6000614c6582613814565b9150614c7083613814565b9250827fffffffffffffffffffffffffffffffffffffffffffffffffffffffffffffffff03821115614ca557614ca461458a565b5b828201905092915050565b7f4552433732313a20617070726f766520746f2063616c6c657200000000000000600082015250565b6000614ce6601983613764565b9150614cf182614cb0565b602082019050919050565b60006020820190508181036000830152614d1581614cd9565b9050919050565b60006060820190508181036000830152614d3681866137b9565b90508181036020830152614d4a81856137b9565b90508181036040830152614d5e81846137b9565b9050949350505050565b7f4552433732313a207472616e7366657220746f206e6f6e20455243373231526560008201527f63656976657220696d706c656d656e7465720000000000000000000000000000602082015250565b6000614dc4603283613764565b9150614dcf82614d68565b604082019050919050565b60006020820190508181036000830152614df381614db7565b9050919050565b7f4552433732314d657461646174613a2055524920717565727920666f72206e6f60008201527f6e6578697374656e7420746f6b656e0000000000000000000000000000000000602082015250565b6000614e56602f83613764565b9150614e6182614dfa565b604082019050919050565b60006020820190508181036000830152614e8581614e49565b9050919050565b7f4e487b7100000000000000000000000000000000000000000000000000000000600052601260045260246000fd5b6000614ec682613814565b9150614ed183613814565b925082614ee157614ee0614e8c565b5b828204905092915050565b6000614ef782613814565b9150614f0283613814565b925082614f1257614f11614e8c565b5b828206905092915050565b60006080820190508181036000830152614f3781876137b9565b90508181036020830152614f4b81866137b9565b90508181036040830152614f5f81856137b9565b9050614f6e6060830184613b3d565b95945050505050565b6000614f8282613814565b9150614f8d83613814565b9250817fffffffffffffffffffffffffffffffffffffffffffffffffffffffffffffffff0483118215151615614fc657614fc561458a565b5b828202905092915050565b7f45524337323155524953746f726167653a2055524920736574206f66206e6f6e60008201527f6578697374656e7420746f6b656e000000000000000000000000000000000000602082015250565b600061502d602e83613764565b915061503882614fd1565b604082019050919050565b6000602082019050818103600083015261505c81615020565b9050919050565b6000606082019050818103600083015261507d81866137b9565b905061508c6020830185613b3d565b818103604083015261509e81846137b9565b9050949350505050565b600081519050919050565b600082825260208201905092915050565b60006150cf826150a8565b6150d981856150b3565b93506150e9818560208601613775565b6150f2816137a8565b840191505092915050565b600060808201905061511260008301876138a9565b61511f60208301866138a9565b61512c6040830185613b3d565b818103606083015261513e81846150c4565b905095945050505050565b600081519050615158816136ca565b92915050565b60006020828403121561517457615173613694565b5b600061518284828501615149565b91505092915050565b7f4552433732313a206d696e7420746f20746865207a65726f2061646472657373600082015250565b60006151c1602083613764565b91506151cc8261518b565b602082019050919050565b600060208201905081810360008301526151f0816151b4565b9050919050565b7f4552433732313a20746f6b656e20616c7265616479206d696e74656400000000600082015250565b600061522d601c83613764565b9150615238826151f7565b602082019050919050565b6000602082019050818103600083015261525c81615220565b905091905056fe0a2d2d2d2d2d2d2d2d2d2d2d2d2d2d2d2d2d2d2d2d2d2d2d2d2d2d2d2d2d2d2d2d2d2d2d2d2d2d2d2d2d2d2d2d2d2d2d2d2d2d2d2d2d2d2d2d2d2d2d2d2d2d2d2d2d2d2d2d2d2d2d2d2d2d2d2d2d2d2d2d2d2d2d2d2d2d2d2d2d2d2d2d2d2d2d2d2d2d2d2d2d2d2d2d2d2d2d2d2d2d2d2d0a5265676973746572696e672025732573206f6e2074686520636f6e7472616374207769746820746f6b656e49442025644142434445464748494a4b4c4d4e4f505152535455565758595a6162636465666768696a6b6c6d6e6f707172737475767778797a303132333435363738392b2fa26469706673582212207e6ecda1e14ed0816495f92d87beb700b4123a450e3b597912153175bc97440064736f6c634300080a00333c73766720786d6c6e733d22687474703a2f2f7777772e77332e6f72672f323030302f737667222077696474683d2232373022206865696768743d22323730222066696c6c3d226e6f6e65223e3c706174682066696c6c3d2275726c282342292220643d224d302030683237307632373048307a222f3e3c646566733e3c66696c7465722069643d22412220636f6c6f722d696e746572706f6c6174696f6e2d66696c746572733d2273524742222066696c746572556e6974733d227573657253706163654f6e55736522206865696768743d22323730222077696474683d22323730223e3c666544726f70536861646f772064783d2230222064793d22312220737464446576696174696f6e3d22322220666c6f6f642d6f7061636974793d222e323235222077696474683d223230302522206865696768743d2232303025222f3e3c2f66696c7465723e3c2f646566733e3c706174682066696c6c3d226e6f6e6522207374726f6b653d222331444434464622207374726f6b652d77696474683d223622207374726f6b652d6d697465726c696d69743d2231302220643d224d32382e3932352c36332e3936312063302d31392e3337352c31352e3730382d33352e3038332c33352e3038322d33352e303833222f3e3c706174682066696c6c3d226e6f6e6522207374726f6b653d222335394646323222207374726f6b652d77696474683d223622207374726f6b652d6d697465726c696d69743d2231302220643d224d32322e3936352c36332e3935382063302d32322e3636322c31382e3337332d34312e3033362c34312e3033352d34312e303336222f3e3c706174682066696c6c3d226e6f6e6522207374726f6b653d222346464544313222207374726f6b652d77696474683d223622207374726f6b652d6d697465726c696d69743d2231302220643d224d31372e3338312c36332e39353863302d32352e3734362c32302e3837342d34362e36322c34362e3631392d34362e3632222f3e3c706174682066696c6c3d226e6f6e6522207374726f6b653d222346463946324322207374726f6b652d77696474683d223622207374726f6b652d6d697465726c696d69743d2231302220643d224d31312e3534382c36332e39353863302d32382e3936392c32332e3438342d35322e3435332c35322e3435322d35322e343533222f3e3c706174682066696c6c3d226e6f6e6522207374726f6b653d222346463239323922207374726f6b652d77696474683d223722207374726f6b652d6d697465726c696d69743d2231302220643d224d352e3239382c36332e39353843352e3239382c33312e3533372c33312e35382c352e3235352c36342c352e32353522202f3e3c706174682066696c6c3d226e6f6e6522207374726f6b653d222345333146464622207374726f6b652d77696474683d223622207374726f6b652d6d697465726c696d69743d2231302220643d224d34302e3133342c363463302d31332e3234342c31302e3733372d32332e3938322c32332e3938312d32332e39383222202f3e3c706174682066696c6c3d226e6f6e6522207374726f6b653d222333313331464622207374726f6b652d77696474683d223622207374726f6b652d6d697465726c696d69743d2231302220643d224d33342e3332322c363463302d31362e3435352c31332e3333392d32392e3739342c32392e3739332d32392e37393422202f3e3c646566733e3c6c696e6561724772616469656e742069643d2242222078313d2230222079313d2230222078323d22323730222079323d2232373022206772616469656e74556e6974733d227573657253706163654f6e557365223e3c73746f702073746f702d636f6c6f723d22236335656565222f3e3c73746f70206f66667365743d2231222073746f702d636f6c6f723d2223306364376634222073746f702d6f7061636974793d222e3939222f3e3c2f6c696e6561724772616469656e743e3c2f646566733e3c7465787420783d2233322e352220793d223233312220666f6e742d73697a653d223237222066696c6c3d2223666666222066696c7465723d2275726c282341292220666f6e742d66616d696c793d22506c7573204a616b617274612053616e732c44656a6156752053616e732c4e6f746f20436f6c6f7220456d6f6a692c4170706c6520436f6c6f7220456d6f6a692c73616e732d73657269662220666f6e742d7765696768743d22626f6c64223e",
  "linkReferences": {},
  "deployedLinkReferences": {}
}