{
  "_format": "hh-sol-artifact-1",
  "contractName": "Domains",
  "sourceName": "contracts/DomainsNFT.sol",
  "abi": [
    {
      "inputs": [
        {
          "internalType": "string",
          "name": "_tld",
          "type": "string"
        }
      ],
      "stateMutability": "payable",
      "type": "constructor"
    },
    {
      "inputs": [],
      "name": "AlreadyRegistered",
      "type": "error"
    },
    {
      "inputs": [
        {
          "internalType": "string",
          "name": "name",
          "type": "string"
        }
      ],
      "name": "InvalidName",
      "type": "error"
    },
    {
      "inputs": [],
      "name": "NotOwner",
      "type": "error"
    },
    {
      "anonymous": false,
      "inputs": [
        {
          "indexed": true,
          "internalType": "address",
          "name": "owner",
          "type": "address"
        },
        {
          "indexed": true,
          "internalType": "address",
          "name": "approved",
          "type": "address"
        },
        {
          "indexed": true,
          "internalType": "uint256",
          "name": "tokenId",
          "type": "uint256"
        }
      ],
      "name": "Approval",
      "type": "event"
    },
    {
      "anonymous": false,
      "inputs": [
        {
          "indexed": true,
          "internalType": "address",
          "name": "owner",
          "type": "address"
        },
        {
          "indexed": true,
          "internalType": "address",
          "name": "operator",
          "type": "address"
        },
        {
          "indexed": false,
          "internalType": "bool",
          "name": "approved",
          "type": "bool"
        }
      ],
      "name": "ApprovalForAll",
      "type": "event"
    },
    {
      "anonymous": false,
      "inputs": [
        {
          "indexed": true,
          "internalType": "address",
          "name": "from",
          "type": "address"
        },
        {
          "indexed": true,
          "internalType": "address",
          "name": "to",
          "type": "address"
        },
        {
          "indexed": true,
          "internalType": "uint256",
          "name": "tokenId",
          "type": "uint256"
        }
      ],
      "name": "Transfer",
      "type": "event"
    },
    {
      "inputs": [
        {
          "internalType": "address",
          "name": "to",
          "type": "address"
        },
        {
          "internalType": "uint256",
          "name": "tokenId",
          "type": "uint256"
        }
      ],
      "name": "approve",
      "outputs": [],
      "stateMutability": "nonpayable",
      "type": "function"
    },
    {
      "inputs": [
        {
          "internalType": "address",
          "name": "owner",
          "type": "address"
        }
      ],
      "name": "balanceOf",
      "outputs": [
        {
          "internalType": "uint256",
          "name": "",
          "type": "uint256"
        }
      ],
      "stateMutability": "view",
      "type": "function"
    },
    {
      "inputs": [
        {
          "internalType": "string",
          "name": "",
          "type": "string"
        }
      ],
      "name": "domainToOwner",
      "outputs": [
        {
          "internalType": "address",
          "name": "",
          "type": "address"
        }
      ],
      "stateMutability": "view",
      "type": "function"
    },
    {
      "inputs": [
        {
          "internalType": "string",
          "name": "name",
          "type": "string"
        }
      ],
      "name": "getAddress",
      "outputs": [
        {
          "internalType": "address",
          "name": "",
          "type": "address"
        }
      ],
      "stateMutability": "view",
      "type": "function"
    },
    {
      "inputs": [],
      "name": "getAllNames",
      "outputs": [
        {
          "internalType": "string[]",
          "name": "",
          "type": "string[]"
        }
      ],
      "stateMutability": "view",
      "type": "function"
    },
    {
      "inputs": [
        {
          "internalType": "uint256",
          "name": "tokenId",
          "type": "uint256"
        }
      ],
      "name": "getApproved",
      "outputs": [
        {
          "internalType": "address",
          "name": "",
          "type": "address"
        }
      ],
      "stateMutability": "view",
      "type": "function"
    },
    {
      "inputs": [],
      "name": "getDomain",
      "outputs": [
        {
          "internalType": "string",
          "name": "",
          "type": "string"
        }
      ],
      "stateMutability": "view",
      "type": "function"
    },
    {
      "inputs": [],
      "name": "getDomains",
      "outputs": [
        {
          "internalType": "string[]",
          "name": "",
          "type": "string[]"
        }
      ],
      "stateMutability": "view",
      "type": "function"
    },
    {
      "inputs": [],
      "name": "i_owner",
      "outputs": [
        {
          "internalType": "address",
          "name": "",
          "type": "address"
        }
      ],
      "stateMutability": "view",
      "type": "function"
    },
    {
      "inputs": [
        {
          "internalType": "address",
          "name": "owner",
          "type": "address"
        },
        {
          "internalType": "address",
          "name": "operator",
          "type": "address"
        }
      ],
      "name": "isApprovedForAll",
      "outputs": [
        {
          "internalType": "bool",
          "name": "",
          "type": "bool"
        }
      ],
      "stateMutability": "view",
      "type": "function"
    },
    {
      "inputs": [],
      "name": "name",
      "outputs": [
        {
          "internalType": "string",
          "name": "",
          "type": "string"
        }
      ],
      "stateMutability": "view",
      "type": "function"
    },
    {
      "inputs": [
        {
          "internalType": "uint256",
          "name": "",
          "type": "uint256"
        }
      ],
      "name": "names",
      "outputs": [
        {
          "internalType": "string",
          "name": "",
          "type": "string"
        }
      ],
      "stateMutability": "view",
      "type": "function"
    },
    {
      "inputs": [
        {
          "internalType": "uint256",
          "name": "tokenId",
          "type": "uint256"
        }
      ],
      "name": "ownerOf",
      "outputs": [
        {
          "internalType": "address",
          "name": "",
          "type": "address"
        }
      ],
      "stateMutability": "view",
      "type": "function"
    },
    {
      "inputs": [
        {
          "internalType": "address",
          "name": "",
          "type": "address"
        }
      ],
      "name": "ownerToDomain",
      "outputs": [
        {
          "internalType": "string",
          "name": "",
          "type": "string"
        }
      ],
      "stateMutability": "view",
      "type": "function"
    },
    {
      "inputs": [
        {
          "internalType": "address",
          "name": "",
          "type": "address"
        },
        {
          "internalType": "uint256",
          "name": "",
          "type": "uint256"
        }
      ],
      "name": "ownerToDomains",
      "outputs": [
        {
          "internalType": "string",
          "name": "",
          "type": "string"
        }
      ],
      "stateMutability": "view",
      "type": "function"
    },
    {
      "inputs": [
        {
          "internalType": "string",
          "name": "name",
          "type": "string"
        }
      ],
      "name": "price",
      "outputs": [
        {
          "internalType": "uint256",
          "name": "",
          "type": "uint256"
        }
      ],
      "stateMutability": "pure",
      "type": "function"
    },
    {
      "inputs": [
        {
          "internalType": "string",
          "name": "name",
          "type": "string"
        },
        {
          "internalType": "bool",
          "name": "_forFree",
          "type": "bool"
        }
      ],
      "name": "register",
      "outputs": [],
      "stateMutability": "payable",
      "type": "function"
    },
    {
      "inputs": [
        {
          "internalType": "address",
          "name": "from",
          "type": "address"
        },
        {
          "internalType": "address",
          "name": "to",
          "type": "address"
        },
        {
          "internalType": "uint256",
          "name": "tokenId",
          "type": "uint256"
        }
      ],
      "name": "safeTransferFrom",
      "outputs": [],
      "stateMutability": "nonpayable",
      "type": "function"
    },
    {
      "inputs": [
        {
          "internalType": "address",
          "name": "from",
          "type": "address"
        },
        {
          "internalType": "address",
          "name": "to",
          "type": "address"
        },
        {
          "internalType": "uint256",
          "name": "tokenId",
          "type": "uint256"
        },
        {
          "internalType": "bytes",
          "name": "_data",
          "type": "bytes"
        }
      ],
      "name": "safeTransferFrom",
      "outputs": [],
      "stateMutability": "nonpayable",
      "type": "function"
    },
    {
      "inputs": [
        {
          "internalType": "address",
          "name": "operator",
          "type": "address"
        },
        {
          "internalType": "bool",
          "name": "approved",
          "type": "bool"
        }
      ],
      "name": "setApprovalForAll",
      "outputs": [],
      "stateMutability": "nonpayable",
      "type": "function"
    },
    {
      "inputs": [
        {
          "internalType": "string",
          "name": "_oldName",
          "type": "string"
        },
        {
          "internalType": "string",
          "name": "_newName",
          "type": "string"
        }
      ],
      "name": "setDomain",
      "outputs": [],
      "stateMutability": "payable",
      "type": "function"
    },
    {
      "inputs": [
        {
          "internalType": "bytes4",
          "name": "interfaceId",
          "type": "bytes4"
        }
      ],
      "name": "supportsInterface",
      "outputs": [
        {
          "internalType": "bool",
          "name": "",
          "type": "bool"
        }
      ],
      "stateMutability": "view",
      "type": "function"
    },
    {
      "inputs": [],
      "name": "symbol",
      "outputs": [
        {
          "internalType": "string",
          "name": "",
          "type": "string"
        }
      ],
      "stateMutability": "view",
      "type": "function"
    },
    {
      "inputs": [],
      "name": "tld",
      "outputs": [
        {
          "internalType": "string",
          "name": "",
          "type": "string"
        }
      ],
      "stateMutability": "view",
      "type": "function"
    },
    {
      "inputs": [
        {
          "internalType": "uint256",
          "name": "tokenId",
          "type": "uint256"
        }
      ],
      "name": "tokenURI",
      "outputs": [
        {
          "internalType": "string",
          "name": "",
          "type": "string"
        }
      ],
      "stateMutability": "view",
      "type": "function"
    },
    {
      "inputs": [
        {
          "internalType": "address",
          "name": "from",
          "type": "address"
        },
        {
          "internalType": "address",
          "name": "to",
          "type": "address"
        },
        {
          "internalType": "uint256",
          "name": "tokenId",
          "type": "uint256"
        }
      ],
      "name": "transferFrom",
      "outputs": [],
      "stateMutability": "nonpayable",
      "type": "function"
    },
    {
      "inputs": [
        {
          "internalType": "string",
          "name": "name",
          "type": "string"
        }
      ],
      "name": "valid",
      "outputs": [
        {
          "internalType": "bool",
          "name": "",
          "type": "bool"
        }
      ],
      "stateMutability": "pure",
      "type": "function"
    },
    {
      "inputs": [],
      "name": "withdraw",
      "outputs": [],
      "stateMutability": "nonpayable",
      "type": "function"
    }
  ],
  "bytecode": "0x60a060405260405180610680016040528061065f815260200162005b4761065f91396009908051906020019062000038929190620002dc565b506040518060400160405280600d81526020017f3c2f746578743e3c2f7376673e00000000000000000000000000000000000000815250600a908051906020019062000086929190620002dc565b50604051620061a6380380620061a68339818101604052810190620000ac919062000529565b6040518060400160405280601781526020017f426974636f696e657261204e616d6520536572766963650000000000000000008152506040518060400160405280600381526020017f424e530000000000000000000000000000000000000000000000000000000000815250816000908051906020019062000130929190620002dc565b50806001908051906020019062000149929190620002dc565b5050503373ffffffffffffffffffffffffffffffffffffffff1660808173ffffffffffffffffffffffffffffffffffffffff16815250508060405160200162000193919062000617565b60405160208183030381529060405260089080519060200190620001b9929190620002dc565b50620002066040518060400160405280601881526020017f2573206e616d652073657276696365206465706c6f7965640000000000000000815250826200020d60201b620020c81760201c565b506200072f565b620002af8282604051602401620002269291906200068f565b6040516020818303038152906040527f4b5c4277000000000000000000000000000000000000000000000000000000007bffffffffffffffffffffffffffffffffffffffffffffffffffffffff19166020820180517bffffffffffffffffffffffffffffffffffffffffffffffffffffffff8381831617835250505050620002b360201b60201c565b5050565b60008151905060006a636f6e736f6c652e6c6f679050602083016000808483855afa5050505050565b828054620002ea90620006f9565b90600052602060002090601f0160209004810192826200030e57600085556200035a565b82601f106200032957805160ff19168380011785556200035a565b828001600101855582156200035a579182015b82811115620003595782518255916020019190600101906200033c565b5b5090506200036991906200036d565b5090565b5b80821115620003885760008160009055506001016200036e565b5090565b6000604051905090565b600080fd5b600080fd5b600080fd5b600080fd5b6000601f19601f8301169050919050565b7f4e487b7100000000000000000000000000000000000000000000000000000000600052604160045260246000fd5b620003f582620003aa565b810181811067ffffffffffffffff82111715620004175762000416620003bb565b5b80604052505050565b60006200042c6200038c565b90506200043a8282620003ea565b919050565b600067ffffffffffffffff8211156200045d576200045c620003bb565b5b6200046882620003aa565b9050602081019050919050565b60005b838110156200049557808201518184015260208101905062000478565b83811115620004a5576000848401525b50505050565b6000620004c2620004bc846200043f565b62000420565b905082815260208101848484011115620004e157620004e0620003a5565b5b620004ee84828562000475565b509392505050565b600082601f8301126200050e576200050d620003a0565b5b815162000520848260208601620004ab565b91505092915050565b60006020828403121562000542576200054162000396565b5b600082015167ffffffffffffffff8111156200056357620005626200039b565b5b6200057184828501620004f6565b91505092915050565b600081905092915050565b7f2e00000000000000000000000000000000000000000000000000000000000000600082015250565b6000620005bd6001836200057a565b9150620005ca8262000585565b600182019050919050565b600081519050919050565b6000620005ed82620005d5565b620005f981856200057a565b93506200060b81856020860162000475565b80840191505092915050565b60006200062482620005ae565b9150620006328284620005e0565b915081905092915050565b600082825260208201905092915050565b60006200065b82620005d5565b6200066781856200063d565b93506200067981856020860162000475565b6200068481620003aa565b840191505092915050565b60006040820190508181036000830152620006ab81856200064e565b90508181036020830152620006c181846200064e565b90509392505050565b7f4e487b7100000000000000000000000000000000000000000000000000000000600052602260045260246000fd5b600060028204905060018216806200071257607f821691505b60208210811415620007295762000728620006ca565b5b50919050565b6080516153f56200075260003960008181610b680152611cd501526153f56000f3fe6080604052600436106101b75760003560e01c80639101cc65116100ec578063bf40fac11161008a578063e985e9c511610064578063e985e9c51461063c578063f90973a214610679578063fb825e5f146106b6578063fe2c6198146106e1576101b7565b8063bf40fac114610597578063c87b56dd146105d4578063dba6335f14610611576101b7565b8063a22cb465116100c6578063a22cb465146104fe578063b68d180914610527578063b7c29d1e14610552578063b88d4fde1461056e576101b7565b80639101cc651461046b57806395d89b41146104965780639791c097146104c1576101b7565b80633ccfd60b116101595780635c5a96ba116101335780635c5a96ba146103985780636352211e146103d557806370a08231146104125780638f294da61461044f576101b7565b80633ccfd60b1461031b57806342842e0e146103325780634622ab031461035b576101b7565b8063095ea7b311610195578063095ea7b31461026157806323b872dd1461028a5780632d551432146102b357806337dab422146102de576101b7565b806301ffc9a7146101bc57806306fdde03146101f9578063081812fc14610224575b600080fd5b3480156101c857600080fd5b506101e360048036038101906101de9190613710565b61071e565b6040516101f09190613758565b60405180910390f35b34801561020557600080fd5b5061020e610800565b60405161021b919061380c565b60405180910390f35b34801561023057600080fd5b5061024b60048036038101906102469190613864565b610892565b60405161025891906138d2565b60405180910390f35b34801561026d57600080fd5b5061028860048036038101906102839190613919565b610917565b005b34801561029657600080fd5b506102b160048036038101906102ac9190613959565b610a2f565b005b3480156102bf57600080fd5b506102c8610a8f565b6040516102d5919061380c565b60405180910390f35b3480156102ea57600080fd5b5061030560048036038101906103009190613ae1565b610b1d565b60405161031291906138d2565b60405180910390f35b34801561032757600080fd5b50610330610b66565b005b34801561033e57600080fd5b5061035960048036038101906103549190613959565b610ca0565b005b34801561036757600080fd5b50610382600480360381019061037d9190613864565b610cc0565b60405161038f919061380c565b60405180910390f35b3480156103a457600080fd5b506103bf60048036038101906103ba9190613b2a565b610d60565b6040516103cc919061380c565b60405180910390f35b3480156103e157600080fd5b506103fc60048036038101906103f79190613864565b610e00565b60405161040991906138d2565b60405180910390f35b34801561041e57600080fd5b5061043960048036038101906104349190613b2a565b610eb2565b6040516104469190613b66565b60405180910390f35b61046960048036038101906104649190613c0d565b610f6a565b005b34801561047757600080fd5b506104806114c0565b60405161048d9190613d79565b60405180910390f35b3480156104a257600080fd5b506104ab6115d6565b6040516104b8919061380c565b60405180910390f35b3480156104cd57600080fd5b506104e860048036038101906104e39190613d9b565b611668565b6040516104f59190613758565b60405180910390f35b34801561050a57600080fd5b5061052560048036038101906105209190613de8565b61171c565b005b34801561053357600080fd5b5061053c611732565b604051610549919061380c565b60405180910390f35b61056c60048036038101906105679190613e28565b61179a565b005b34801561057a57600080fd5b5061059560048036038101906105909190613f4a565b611ad4565b005b3480156105a357600080fd5b506105be60048036038101906105b99190613d9b565b611b36565b6040516105cb91906138d2565b60405180910390f35b3480156105e057600080fd5b506105fb60048036038101906105f69190613864565b611b81565b604051610608919061380c565b60405180910390f35b34801561061d57600080fd5b50610626611cd3565b60405161063391906138d2565b60405180910390f35b34801561064857600080fd5b50610663600480360381019061065e9190613fcd565b611cf7565b6040516106709190613758565b60405180910390f35b34801561068557600080fd5b506106a0600480360381019061069b9190613919565b611d8b565b6040516106ad919061380c565b60405180910390f35b3480156106c257600080fd5b506106cb611e44565b6040516106d89190613d79565b60405180910390f35b3480156106ed57600080fd5b5061070860048036038101906107039190613d9b565b612022565b6040516107159190613b66565b60405180910390f35b60007f80ac58cd000000000000000000000000000000000000000000000000000000007bffffffffffffffffffffffffffffffffffffffffffffffffffffffff1916827bffffffffffffffffffffffffffffffffffffffffffffffffffffffff191614806107e957507f5b5e139f000000000000000000000000000000000000000000000000000000007bffffffffffffffffffffffffffffffffffffffffffffffffffffffff1916827bffffffffffffffffffffffffffffffffffffffffffffffffffffffff1916145b806107f957506107f882612164565b5b9050919050565b60606000805461080f9061403c565b80601f016020809104026020016040519081016040528092919081815260200182805461083b9061403c565b80156108885780601f1061085d57610100808354040283529160200191610888565b820191906000526020600020905b81548152906001019060200180831161086b57829003601f168201915b5050505050905090565b600061089d826121ce565b6108dc576040517f08c379a00000000000000000000000000000000000000000000000000000000081526004016108d3906140e0565b60405180910390fd5b6004600083815260200190815260200160002060009054906101000a900473ffffffffffffffffffffffffffffffffffffffff169050919050565b600061092282610e00565b90508073ffffffffffffffffffffffffffffffffffffffff168373ffffffffffffffffffffffffffffffffffffffff161415610993576040517f08c379a000000000000000000000000000000000000000000000000000000000815260040161098a90614172565b60405180910390fd5b8073ffffffffffffffffffffffffffffffffffffffff166109b261223a565b73ffffffffffffffffffffffffffffffffffffffff1614806109e157506109e0816109db61223a565b611cf7565b5b610a20576040517f08c379a0000000000000000000000000000000000000000000000000000000008152600401610a1790614204565b60405180910390fd5b610a2a8383612242565b505050565b610a40610a3a61223a565b826122fb565b610a7f576040517f08c379a0000000000000000000000000000000000000000000000000000000008152600401610a7690614296565b60405180910390fd5b610a8a8383836123d9565b505050565b60088054610a9c9061403c565b80601f0160208091040260200160405190810160405280929190818152602001828054610ac89061403c565b8015610b155780601f10610aea57610100808354040283529160200191610b15565b820191906000526020600020905b815481529060010190602001808311610af857829003601f168201915b505050505081565b600b818051602081018201805184825260208301602085012081835280955050505050506000915054906101000a900473ffffffffffffffffffffffffffffffffffffffff1681565b7f000000000000000000000000000000000000000000000000000000000000000073ffffffffffffffffffffffffffffffffffffffff163373ffffffffffffffffffffffffffffffffffffffff1614610beb576040517f30cd747100000000000000000000000000000000000000000000000000000000815260040160405180910390fd5b600047905060003373ffffffffffffffffffffffffffffffffffffffff1682604051610c16906142e7565b60006040518083038185875af1925050503d8060008114610c53576040519150601f19603f3d011682016040523d82523d6000602084013e610c58565b606091505b5050905080610c9c576040517f08c379a0000000000000000000000000000000000000000000000000000000008152600401610c9390614348565b60405180910390fd5b5050565b610cbb83838360405180602001604052806000815250611ad4565b505050565b600d6020528060005260406000206000915090508054610cdf9061403c565b80601f0160208091040260200160405190810160405280929190818152602001828054610d0b9061403c565b8015610d585780601f10610d2d57610100808354040283529160200191610d58565b820191906000526020600020905b815481529060010190602001808311610d3b57829003601f168201915b505050505081565b600c6020528060005260406000206000915090508054610d7f9061403c565b80601f0160208091040260200160405190810160405280929190818152602001828054610dab9061403c565b8015610df85780601f10610dcd57610100808354040283529160200191610df8565b820191906000526020600020905b815481529060010190602001808311610ddb57829003601f168201915b505050505081565b6000806002600084815260200190815260200160002060009054906101000a900473ffffffffffffffffffffffffffffffffffffffff169050600073ffffffffffffffffffffffffffffffffffffffff168173ffffffffffffffffffffffffffffffffffffffff161415610ea9576040517f08c379a0000000000000000000000000000000000000000000000000000000008152600401610ea0906143da565b60405180910390fd5b80915050919050565b60008073ffffffffffffffffffffffffffffffffffffffff168273ffffffffffffffffffffffffffffffffffffffff161415610f23576040517f08c379a0000000000000000000000000000000000000000000000000000000008152600401610f1a9061446c565b60405180910390fd5b600360008373ffffffffffffffffffffffffffffffffffffffff1673ffffffffffffffffffffffffffffffffffffffff168152602001908152602001600020549050919050565b600073ffffffffffffffffffffffffffffffffffffffff16600b8484604051610f949291906144bc565b908152602001604051809103902060009054906101000a900473ffffffffffffffffffffffffffffffffffffffff1673ffffffffffffffffffffffffffffffffffffffff1614611010576040517f3a81d6fc00000000000000000000000000000000000000000000000000000000815260040160405180910390fd5b61101a8383611668565b61105d5782826040517f7f19f48d000000000000000000000000000000000000000000000000000000008152600401611054929190614502565b60405180910390fd5b6000816110735761106e8484612022565b611076565b60005b9050803410156110bb576040517f08c379a00000000000000000000000000000000000000000000000000000000081526004016110b290614572565b60405180910390fd5b6000848460086040516020016110d393929190614626565b60405160208183030381529060405290506000600982600a6040516020016110fd9392919061467d565b6040516020818303038152906040529050600061111a6007612640565b9050600061116b88888080601f016020809104026020016040519081016040528093929190818152602001838380828437600081840152601f19601f8201169050808301925050505050505061264e565b9050600061117882612803565b905061126c604051806060016040528060308152602001615350603091398a8a8080601f016020809104026020016040519081016040528093929190818152602001838380828437600081840152601f19601f82011690508083019250505050505050600880546111e89061403c565b80601f01602080910402602001604051908101604052809291908181526020018280546112149061403c565b80156112615780601f1061123657610100808354040283529160200191611261565b820191906000526020600020905b81548152906001019060200180831161124457829003601f168201915b505050505086612964565b60006112a28661127b87612a06565b8460405160200161128e93929190614850565b604051602081830303815290604052612a06565b90506000816040516020016112b791906148f9565b60405160208183030381529060405290506112e96040518060600160405280603981526020016152de60399139612b9e565b6113286040518060400160405280600e81526020017f46696e616c20746f6b656e555249000000000000000000000000000000000000815250826120c8565b61134960405180606001604052806039815260200161531760399139612b9e565b6113533386612c37565b61135d8582612c55565b33600b8c8c6040516113709291906144bc565b908152602001604051809103902060006101000a81548173ffffffffffffffffffffffffffffffffffffffff021916908373ffffffffffffffffffffffffffffffffffffffff1602179055508a8a600c60003373ffffffffffffffffffffffffffffffffffffffff1673ffffffffffffffffffffffffffffffffffffffff168152602001908152602001600020919061140a9291906134b7565b50600e60003373ffffffffffffffffffffffffffffffffffffffff1673ffffffffffffffffffffffffffffffffffffffff1681526020019081526020016000208b8b909180600181540180825580915050600190039060005260206000200160009091929091929091929091925091906114859291906134b7565b506114906007612cc9565b8a8a600d600088815260200190815260200160002091906114b29291906134b7565b505050505050505050505050565b6060600e60003373ffffffffffffffffffffffffffffffffffffffff1673ffffffffffffffffffffffffffffffffffffffff168152602001908152602001600020805480602002602001604051908101604052809291908181526020016000905b828210156115cd5783829060005260206000200180546115409061403c565b80601f016020809104026020016040519081016040528092919081815260200182805461156c9061403c565b80156115b95780601f1061158e576101008083540402835291602001916115b9565b820191906000526020600020905b81548152906001019060200180831161159c57829003601f168201915b505050505081526020019060010190611521565b50505050905090565b6060600180546115e59061403c565b80601f01602080910402602001604051908101604052809291908181526020018280546116119061403c565b801561165e5780601f106116335761010080835404028352916020019161165e565b820191906000526020600020905b81548152906001019060200180831161164157829003601f168201915b5050505050905090565b600060036116b984848080601f016020809104026020016040519081016040528093929190818152602001838380828437600081840152601f19601f8201169050808301925050505050505061264e565b101580156117145750600a61171184848080601f016020809104026020016040519081016040528093929190818152602001838380828437600081840152601f19601f8201169050808301925050505050505061264e565b11155b905092915050565b61172e61172761223a565b8383612cdf565b5050565b6060600c60003373ffffffffffffffffffffffffffffffffffffffff1673ffffffffffffffffffffffffffffffffffffffff168152602001908152602001600020600860405160200161178692919061491b565b604051602081830303815290604052905090565b6000600e60003373ffffffffffffffffffffffffffffffffffffffff1673ffffffffffffffffffffffffffffffffffffffff168152602001908152602001600020805480602002602001604051908101604052809291908181526020016000905b828210156118a757838290600052602060002001805461181a9061403c565b80601f01602080910402602001604051908101604052809291908181526020018280546118469061403c565b80156118935780601f1061186857610100808354040283529160200191611893565b820191906000526020600020905b81548152906001019060200180831161187657829003601f168201915b5050505050815260200190600101906117fb565b50505050905060005b8151811015611acc5785856040516020016118cc9291906144bc565b604051602081830303815290604052805190602001208282815181106118f5576118f461493f565b5b602002602001015160405160200161190d919061496e565b604051602081830303815290604052805190602001201415611ab9576119f16040518060400160405280601881526020017f4368616e67696e6720646f6d61696e20257320746f202573000000000000000081525087878080601f016020809104026020016040519081016040528093929190818152602001838380828437600081840152601f19601f8201169050808301925050505050505086868080601f016020809104026020016040519081016040528093929190818152602001838380828437600081840152601f19601f82011690508083019250505050505050612e4c565b6119fd84846001610f6a565b83838080601f016020809104026020016040519081016040528093929190818152602001838380828437600081840152601f19601f82011690508083019250505050505050828281518110611a5557611a5461493f565b5b602002602001018190525081600e60003373ffffffffffffffffffffffffffffffffffffffff1673ffffffffffffffffffffffffffffffffffffffff1681526020019081526020016000209080519060200190611ab392919061353d565b50611acc565b8080611ac4906149b4565b9150506118b0565b505050505050565b611ae5611adf61223a565b836122fb565b611b24576040517f08c379a0000000000000000000000000000000000000000000000000000000008152600401611b1b90614296565b60405180910390fd5b611b3084848484612eeb565b50505050565b6000600b8383604051611b4a9291906144bc565b908152602001604051809103902060009054906101000a900473ffffffffffffffffffffffffffffffffffffffff16905092915050565b6060611b8c826121ce565b611bcb576040517f08c379a0000000000000000000000000000000000000000000000000000000008152600401611bc290614a6f565b60405180910390fd5b6000600660008481526020019081526020016000208054611beb9061403c565b80601f0160208091040260200160405190810160405280929190818152602001828054611c179061403c565b8015611c645780601f10611c3957610100808354040283529160200191611c64565b820191906000526020600020905b815481529060010190602001808311611c4757829003601f168201915b505050505090506000611c75612f47565b9050600081511415611c8b578192505050611cce565b600082511115611cc0578082604051602001611ca8929190614a8f565b60405160208183030381529060405292505050611cce565b611cc984612f5e565b925050505b919050565b7f000000000000000000000000000000000000000000000000000000000000000081565b6000600560008473ffffffffffffffffffffffffffffffffffffffff1673ffffffffffffffffffffffffffffffffffffffff16815260200190815260200160002060008373ffffffffffffffffffffffffffffffffffffffff1673ffffffffffffffffffffffffffffffffffffffff16815260200190815260200160002060009054906101000a900460ff16905092915050565b600e6020528160005260406000208181548110611da757600080fd5b90600052602060002001600091509150508054611dc39061403c565b80601f0160208091040260200160405190810160405280929190818152602001828054611def9061403c565b8015611e3c5780601f10611e1157610100808354040283529160200191611e3c565b820191906000526020600020905b815481529060010190602001808311611e1f57829003601f168201915b505050505081565b6060611e846040518060400160405280601f81526020017f47657474696e6720616c6c206e616d65732066726f6d20636f6e747261637400815250612b9e565b6000611e906007612640565b67ffffffffffffffff811115611ea957611ea86139b6565b5b604051908082528060200260200182016040528015611edc57816020015b6060815260200190600190039081611ec75790505b50905060005b611eec6007612640565b81101561201a57600d60008281526020019081526020016000208054611f119061403c565b80601f0160208091040260200160405190810160405280929190818152602001828054611f3d9061403c565b8015611f8a5780601f10611f5f57610100808354040283529160200191611f8a565b820191906000526020600020905b815481529060010190602001808311611f6d57829003601f168201915b5050505050828281518110611fa257611fa161493f565b5b60200260200101819052506120076040518060400160405280601781526020017f4e616d6520666f7220746f6b656e20256420697320257300000000000000000081525082848481518110611ffa57611ff961493f565b5b6020026020010151613005565b8080612012906149b4565b915050611ee2565b508091505090565b60008061207284848080601f016020809104026020016040519081016040528093929190818152602001838380828437600081840152601f19601f8201169050808301925050505050505061264e565b90506000811161208157600080fd5b600381141561209b576706f05b59d3b200009150506120c2565b60048114156120b557670429d069189e00009150506120c2565b67016345785d8a00009150505b92915050565b61216082826040516024016120de929190614ab3565b6040516020818303038152906040527f4b5c4277000000000000000000000000000000000000000000000000000000007bffffffffffffffffffffffffffffffffffffffffffffffffffffffff19166020820180517bffffffffffffffffffffffffffffffffffffffffffffffffffffffff83818316178352505050506130a4565b5050565b60007f01ffc9a7000000000000000000000000000000000000000000000000000000007bffffffffffffffffffffffffffffffffffffffffffffffffffffffff1916827bffffffffffffffffffffffffffffffffffffffffffffffffffffffff1916149050919050565b60008073ffffffffffffffffffffffffffffffffffffffff166002600084815260200190815260200160002060009054906101000a900473ffffffffffffffffffffffffffffffffffffffff1673ffffffffffffffffffffffffffffffffffffffff1614159050919050565b600033905090565b816004600083815260200190815260200160002060006101000a81548173ffffffffffffffffffffffffffffffffffffffff021916908373ffffffffffffffffffffffffffffffffffffffff160217905550808273ffffffffffffffffffffffffffffffffffffffff166122b583610e00565b73ffffffffffffffffffffffffffffffffffffffff167f8c5be1e5ebec7d5bd14f71427d1e84f3dd0314c0f7b2291e5b200ac8c7c3b92560405160405180910390a45050565b6000612306826121ce565b612345576040517f08c379a000000000000000000000000000000000000000000000000000000000815260040161233c90614b5c565b60405180910390fd5b600061235083610e00565b90508073ffffffffffffffffffffffffffffffffffffffff168473ffffffffffffffffffffffffffffffffffffffff16148061239257506123918185611cf7565b5b806123d057508373ffffffffffffffffffffffffffffffffffffffff166123b884610892565b73ffffffffffffffffffffffffffffffffffffffff16145b91505092915050565b8273ffffffffffffffffffffffffffffffffffffffff166123f982610e00565b73ffffffffffffffffffffffffffffffffffffffff161461244f576040517f08c379a000000000000000000000000000000000000000000000000000000000815260040161244690614bee565b60405180910390fd5b600073ffffffffffffffffffffffffffffffffffffffff168273ffffffffffffffffffffffffffffffffffffffff1614156124bf576040517f08c379a00000000000000000000000000000000000000000000000000000000081526004016124b690614c80565b60405180910390fd5b6124ca8383836130cd565b6124d5600082612242565b6001600360008573ffffffffffffffffffffffffffffffffffffffff1673ffffffffffffffffffffffffffffffffffffffff16815260200190815260200160002060008282546125259190614ca0565b925050819055506001600360008473ffffffffffffffffffffffffffffffffffffffff1673ffffffffffffffffffffffffffffffffffffffff168152602001908152602001600020600082825461257c9190614cd4565b92505081905550816002600083815260200190815260200160002060006101000a81548173ffffffffffffffffffffffffffffffffffffffff021916908373ffffffffffffffffffffffffffffffffffffffff160217905550808273ffffffffffffffffffffffffffffffffffffffff168473ffffffffffffffffffffffffffffffffffffffff167fddf252ad1be2c89b69c2b068fc378daa952ba7f163c4a11628f55a4df523b3ef60405160405180910390a461263b8383836130d2565b505050565b600081600001549050919050565b60008060008084519050600092505b808210156127f857600085838151811061267a5761267961493f565b5b602001015160f81c60f81b9050608060f81b817effffffffffffffffffffffffffffffffffffffffffffffffffffffffffffff191610156126c9576001836126c29190614cd4565b92506127e4565b60e060f81b817effffffffffffffffffffffffffffffffffffffffffffffffffffffffffffff1916101561270b576002836127049190614cd4565b92506127e3565b60f060f81b817effffffffffffffffffffffffffffffffffffffffffffffffffffffffffffff1916101561274d576003836127469190614cd4565b92506127e2565b60f8801b817effffffffffffffffffffffffffffffffffffffffffffffffffffffffffffff1916101561278e576004836127879190614cd4565b92506127e1565b60fc60f81b817effffffffffffffffffffffffffffffffffffffffffffffffffffffffffffff191610156127d0576005836127c99190614cd4565b92506127e0565b6006836127dd9190614cd4565b92505b5b5b5b5b5082806127f0906149b4565b93505061265d565b829350505050919050565b6060600082141561284b576040518060400160405280600181526020017f3000000000000000000000000000000000000000000000000000000000000000815250905061295f565b600082905060005b6000821461287d578080612866906149b4565b915050600a826128769190614d59565b9150612853565b60008167ffffffffffffffff811115612899576128986139b6565b5b6040519080825280601f01601f1916602001820160405280156128cb5781602001600182028036833780820191505090505b5090505b60008514612958576001826128e49190614ca0565b9150600a856128f39190614d8a565b60306128ff9190614cd4565b60f81b8183815181106129155761291461493f565b5b60200101907effffffffffffffffffffffffffffffffffffffffffffffffffffffffffffff1916908160001a905350600a856129519190614d59565b94506128cf565b8093505050505b919050565b612a008484848460405160240161297e9493929190614dbb565b6040516020818303038152906040527f9fd009f5000000000000000000000000000000000000000000000000000000007bffffffffffffffffffffffffffffffffffffffffffffffffffffffff19166020820180517bffffffffffffffffffffffffffffffffffffffffffffffffffffffff83818316178352505050506130a4565b50505050565b60606000825190506000811415612a2f5760405180602001604052806000815250915050612b99565b60006003600283612a409190614cd4565b612a4a9190614d59565b6004612a569190614e15565b90506000602082612a679190614cd4565b67ffffffffffffffff811115612a8057612a7f6139b6565b5b6040519080825280601f01601f191660200182016040528015612ab25781602001600182028036833780820191505090505b5090506000604051806060016040528060408152602001615380604091399050600181016020830160005b86811015612b565760038101905062ffffff818a015116603f8160121c168401518060081b905060ff603f83600c1c1686015116810190508060081b905060ff603f8360061c1686015116810190508060081b905060ff603f831686015116810190508060e01b90508084526004840193505050612add565b506003860660018114612b705760028114612b8057612b8b565b613d3d60f01b6002830352612b8b565b603d60f81b60018303525b508484525050819450505050505b919050565b612c3481604051602401612bb2919061380c565b6040516020818303038152906040527f41304fac000000000000000000000000000000000000000000000000000000007bffffffffffffffffffffffffffffffffffffffffffffffffffffffff19166020820180517bffffffffffffffffffffffffffffffffffffffffffffffffffffffff83818316178352505050506130a4565b50565b612c518282604051806020016040528060008152506130d7565b5050565b612c5e826121ce565b612c9d576040517f08c379a0000000000000000000000000000000000000000000000000000000008152600401612c9490614ee1565b60405180910390fd5b80600660008481526020019081526020016000209080519060200190612cc492919061359d565b505050565b6001816000016000828254019250508190555050565b8173ffffffffffffffffffffffffffffffffffffffff168373ffffffffffffffffffffffffffffffffffffffff161415612d4e576040517f08c379a0000000000000000000000000000000000000000000000000000000008152600401612d4590614f4d565b60405180910390fd5b80600560008573ffffffffffffffffffffffffffffffffffffffff1673ffffffffffffffffffffffffffffffffffffffff16815260200190815260200160002060008473ffffffffffffffffffffffffffffffffffffffff1673ffffffffffffffffffffffffffffffffffffffff16815260200190815260200160002060006101000a81548160ff0219169083151502179055508173ffffffffffffffffffffffffffffffffffffffff168373ffffffffffffffffffffffffffffffffffffffff167f17307eab39ab6107e8899845ad3d59bd9653f200f220920489ca2b5937696c3183604051612e3f9190613758565b60405180910390a3505050565b612ee6838383604051602401612e6493929190614f6d565b6040516020818303038152906040527f2ced7cef000000000000000000000000000000000000000000000000000000007bffffffffffffffffffffffffffffffffffffffffffffffffffffffff19166020820180517bffffffffffffffffffffffffffffffffffffffffffffffffffffffff83818316178352505050506130a4565b505050565b612ef68484846123d9565b612f0284848484613132565b612f41576040517f08c379a0000000000000000000000000000000000000000000000000000000008152600401612f389061502b565b60405180910390fd5b50505050565b606060405180602001604052806000815250905090565b6060612f69826121ce565b612fa8576040517f08c379a0000000000000000000000000000000000000000000000000000000008152600401612f9f906150bd565b60405180910390fd5b6000612fb2612f47565b90506000815111612fd25760405180602001604052806000815250612ffd565b80612fdc84612803565b604051602001612fed929190614a8f565b6040516020818303038152906040525b915050919050565b61309f83838360405160240161301d939291906150dd565b6040516020818303038152906040527fa3f5c739000000000000000000000000000000000000000000000000000000007bffffffffffffffffffffffffffffffffffffffffffffffffffffffff19166020820180517bffffffffffffffffffffffffffffffffffffffffffffffffffffffff83818316178352505050506130a4565b505050565b60008151905060006a636f6e736f6c652e6c6f679050602083016000808483855afa5050505050565b505050565b505050565b6130e183836132ba565b6130ee6000848484613132565b61312d576040517f08c379a00000000000000000000000000000000000000000000000000000000081526004016131249061502b565b60405180910390fd5b505050565b60006131538473ffffffffffffffffffffffffffffffffffffffff16613494565b156132ad578373ffffffffffffffffffffffffffffffffffffffff1663150b7a0261317c61223a565b8786866040518563ffffffff1660e01b815260040161319e9493929190615177565b6020604051808303816000875af19250505080156131da57506040513d601f19601f820116820180604052508101906131d791906151d8565b60015b61325d573d806000811461320a576040519150601f19603f3d011682016040523d82523d6000602084013e61320f565b606091505b50600081511415613255576040517f08c379a000000000000000000000000000000000000000000000000000000000815260040161324c9061502b565b60405180910390fd5b805181602001fd5b63150b7a0260e01b7bffffffffffffffffffffffffffffffffffffffffffffffffffffffff1916817bffffffffffffffffffffffffffffffffffffffffffffffffffffffff1916149150506132b2565b600190505b949350505050565b600073ffffffffffffffffffffffffffffffffffffffff168273ffffffffffffffffffffffffffffffffffffffff16141561332a576040517f08c379a000000000000000000000000000000000000000000000000000000000815260040161332190615251565b60405180910390fd5b613333816121ce565b15613373576040517f08c379a000000000000000000000000000000000000000000000000000000000815260040161336a906152bd565b60405180910390fd5b61337f600083836130cd565b6001600360008473ffffffffffffffffffffffffffffffffffffffff1673ffffffffffffffffffffffffffffffffffffffff16815260200190815260200160002060008282546133cf9190614cd4565b92505081905550816002600083815260200190815260200160002060006101000a81548173ffffffffffffffffffffffffffffffffffffffff021916908373ffffffffffffffffffffffffffffffffffffffff160217905550808273ffffffffffffffffffffffffffffffffffffffff16600073ffffffffffffffffffffffffffffffffffffffff167fddf252ad1be2c89b69c2b068fc378daa952ba7f163c4a11628f55a4df523b3ef60405160405180910390a4613490600083836130d2565b5050565b6000808273ffffffffffffffffffffffffffffffffffffffff163b119050919050565b8280546134c39061403c565b90600052602060002090601f0160209004810192826134e5576000855561352c565b82601f106134fe57803560ff191683800117855561352c565b8280016001018555821561352c579182015b8281111561352b578235825591602001919060010190613510565b5b5090506135399190613623565b5090565b82805482825590600052602060002090810192821561358c579160200282015b8281111561358b57825182908051906020019061357b92919061359d565b509160200191906001019061355d565b5b5090506135999190613640565b5090565b8280546135a99061403c565b90600052602060002090601f0160209004810192826135cb5760008555613612565b82601f106135e457805160ff1916838001178555613612565b82800160010185558215613612579182015b828111156136115782518255916020019190600101906135f6565b5b50905061361f9190613623565b5090565b5b8082111561363c576000816000905550600101613624565b5090565b5b8082111561366057600081816136579190613664565b50600101613641565b5090565b5080546136709061403c565b6000825580601f1061368257506136a1565b601f0160209004906000526020600020908101906136a09190613623565b5b50565b6000604051905090565b600080fd5b600080fd5b60007fffffffff0000000000000000000000000000000000000000000000000000000082169050919050565b6136ed816136b8565b81146136f857600080fd5b50565b60008135905061370a816136e4565b92915050565b600060208284031215613726576137256136ae565b5b6000613734848285016136fb565b91505092915050565b60008115159050919050565b6137528161373d565b82525050565b600060208201905061376d6000830184613749565b92915050565b600081519050919050565b600082825260208201905092915050565b60005b838110156137ad578082015181840152602081019050613792565b838111156137bc576000848401525b50505050565b6000601f19601f8301169050919050565b60006137de82613773565b6137e8818561377e565b93506137f881856020860161378f565b613801816137c2565b840191505092915050565b6000602082019050818103600083015261382681846137d3565b905092915050565b6000819050919050565b6138418161382e565b811461384c57600080fd5b50565b60008135905061385e81613838565b92915050565b60006020828403121561387a576138796136ae565b5b60006138888482850161384f565b91505092915050565b600073ffffffffffffffffffffffffffffffffffffffff82169050919050565b60006138bc82613891565b9050919050565b6138cc816138b1565b82525050565b60006020820190506138e760008301846138c3565b92915050565b6138f6816138b1565b811461390157600080fd5b50565b600081359050613913816138ed565b92915050565b600080604083850312156139305761392f6136ae565b5b600061393e85828601613904565b925050602061394f8582860161384f565b9150509250929050565b600080600060608486031215613972576139716136ae565b5b600061398086828701613904565b935050602061399186828701613904565b92505060406139a28682870161384f565b9150509250925092565b600080fd5b600080fd5b7f4e487b7100000000000000000000000000000000000000000000000000000000600052604160045260246000fd5b6139ee826137c2565b810181811067ffffffffffffffff82111715613a0d57613a0c6139b6565b5b80604052505050565b6000613a206136a4565b9050613a2c82826139e5565b919050565b600067ffffffffffffffff821115613a4c57613a4b6139b6565b5b613a55826137c2565b9050602081019050919050565b82818337600083830152505050565b6000613a84613a7f84613a31565b613a16565b905082815260208101848484011115613aa057613a9f6139b1565b5b613aab848285613a62565b509392505050565b600082601f830112613ac857613ac76139ac565b5b8135613ad8848260208601613a71565b91505092915050565b600060208284031215613af757613af66136ae565b5b600082013567ffffffffffffffff811115613b1557613b146136b3565b5b613b2184828501613ab3565b91505092915050565b600060208284031215613b4057613b3f6136ae565b5b6000613b4e84828501613904565b91505092915050565b613b608161382e565b82525050565b6000602082019050613b7b6000830184613b57565b92915050565b600080fd5b600080fd5b60008083601f840112613ba157613ba06139ac565b5b8235905067ffffffffffffffff811115613bbe57613bbd613b81565b5b602083019150836001820283011115613bda57613bd9613b86565b5b9250929050565b613bea8161373d565b8114613bf557600080fd5b50565b600081359050613c0781613be1565b92915050565b600080600060408486031215613c2657613c256136ae565b5b600084013567ffffffffffffffff811115613c4457613c436136b3565b5b613c5086828701613b8b565b93509350506020613c6386828701613bf8565b9150509250925092565b600081519050919050565b600082825260208201905092915050565b6000819050602082019050919050565b600082825260208201905092915050565b6000613cb582613773565b613cbf8185613c99565b9350613ccf81856020860161378f565b613cd8816137c2565b840191505092915050565b6000613cef8383613caa565b905092915050565b6000602082019050919050565b6000613d0f82613c6d565b613d198185613c78565b935083602082028501613d2b85613c89565b8060005b85811015613d675784840389528151613d488582613ce3565b9450613d5383613cf7565b925060208a01995050600181019050613d2f565b50829750879550505050505092915050565b60006020820190508181036000830152613d938184613d04565b905092915050565b60008060208385031215613db257613db16136ae565b5b600083013567ffffffffffffffff811115613dd057613dcf6136b3565b5b613ddc85828601613b8b565b92509250509250929050565b60008060408385031215613dff57613dfe6136ae565b5b6000613e0d85828601613904565b9250506020613e1e85828601613bf8565b9150509250929050565b60008060008060408587031215613e4257613e416136ae565b5b600085013567ffffffffffffffff811115613e6057613e5f6136b3565b5b613e6c87828801613b8b565b9450945050602085013567ffffffffffffffff811115613e8f57613e8e6136b3565b5b613e9b87828801613b8b565b925092505092959194509250565b600067ffffffffffffffff821115613ec457613ec36139b6565b5b613ecd826137c2565b9050602081019050919050565b6000613eed613ee884613ea9565b613a16565b905082815260208101848484011115613f0957613f086139b1565b5b613f14848285613a62565b509392505050565b600082601f830112613f3157613f306139ac565b5b8135613f41848260208601613eda565b91505092915050565b60008060008060808587031215613f6457613f636136ae565b5b6000613f7287828801613904565b9450506020613f8387828801613904565b9350506040613f948782880161384f565b925050606085013567ffffffffffffffff811115613fb557613fb46136b3565b5b613fc187828801613f1c565b91505092959194509250565b60008060408385031215613fe457613fe36136ae565b5b6000613ff285828601613904565b925050602061400385828601613904565b9150509250929050565b7f4e487b7100000000000000000000000000000000000000000000000000000000600052602260045260246000fd5b6000600282049050600182168061405457607f821691505b602082108114156140685761406761400d565b5b50919050565b7f4552433732313a20617070726f76656420717565727920666f72206e6f6e657860008201527f697374656e7420746f6b656e0000000000000000000000000000000000000000602082015250565b60006140ca602c8361377e565b91506140d58261406e565b604082019050919050565b600060208201905081810360008301526140f9816140bd565b9050919050565b7f4552433732313a20617070726f76616c20746f2063757272656e74206f776e6560008201527f7200000000000000000000000000000000000000000000000000000000000000602082015250565b600061415c60218361377e565b915061416782614100565b604082019050919050565b6000602082019050818103600083015261418b8161414f565b9050919050565b7f4552433732313a20617070726f76652063616c6c6572206973206e6f74206f7760008201527f6e6572206e6f7220617070726f76656420666f7220616c6c0000000000000000602082015250565b60006141ee60388361377e565b91506141f982614192565b604082019050919050565b6000602082019050818103600083015261421d816141e1565b9050919050565b7f4552433732313a207472616e736665722063616c6c6572206973206e6f74206f60008201527f776e6572206e6f7220617070726f766564000000000000000000000000000000602082015250565b600061428060318361377e565b915061428b82614224565b604082019050919050565b600060208201905081810360008301526142af81614273565b9050919050565b600081905092915050565b50565b60006142d16000836142b6565b91506142dc826142c1565b600082019050919050565b60006142f2826142c4565b9150819050919050565b7f4661696c656420746f207769746864726177204d617469630000000000000000600082015250565b600061433260188361377e565b915061433d826142fc565b602082019050919050565b6000602082019050818103600083015261436181614325565b9050919050565b7f4552433732313a206f776e657220717565727920666f72206e6f6e657869737460008201527f656e7420746f6b656e0000000000000000000000000000000000000000000000602082015250565b60006143c460298361377e565b91506143cf82614368565b604082019050919050565b600060208201905081810360008301526143f3816143b7565b9050919050565b7f4552433732313a2062616c616e636520717565727920666f7220746865207a6560008201527f726f206164647265737300000000000000000000000000000000000000000000602082015250565b6000614456602a8361377e565b9150614461826143fa565b604082019050919050565b6000602082019050818103600083015261448581614449565b9050919050565b600081905092915050565b60006144a3838561448c565b93506144b0838584613a62565b82840190509392505050565b60006144c9828486614497565b91508190509392505050565b60006144e1838561377e565b93506144ee838584613a62565b6144f7836137c2565b840190509392505050565b6000602082019050818103600083015261451d8184866144d5565b90509392505050565b7f4e6f7420656e6f756768204d6174696320706169640000000000000000000000600082015250565b600061455c60158361377e565b915061456782614526565b602082019050919050565b6000602082019050818103600083015261458b8161454f565b9050919050565b60008190508160005260206000209050919050565b600081546145b48161403c565b6145be818661448c565b945060018216600081146145d957600181146145ea5761461d565b60ff1983168652818601935061461d565b6145f385614592565b60005b83811015614615578154818901526001820191506020810190506145f6565b838801955050505b50505092915050565b6000614633828587614497565b915061463f82846145a7565b9150819050949350505050565b600061465782613773565b614661818561448c565b935061467181856020860161378f565b80840191505092915050565b600061468982866145a7565b9150614695828561464c565b91506146a182846145a7565b9150819050949350505050565b7f7b226e616d65223a202200000000000000000000000000000000000000000000600082015250565b60006146e4600a8361448c565b91506146ef826146ae565b600a82019050919050565b7f222c20226465736372697074696f6e223a20224120646f6d61696e206f6e207460008201527f686520424e532028426974636f696e657261204e616d6520536572766963652960208201527f222c2022696d616765223a2022646174613a696d6167652f7376672b786d6c3b60408201527f6261736536342c00000000000000000000000000000000000000000000000000606082015250565b60006147a260678361448c565b91506147ad826146fa565b606782019050919050565b7f222c226c656e677468223a220000000000000000000000000000000000000000600082015250565b60006147ee600c8361448c565b91506147f9826147b8565b600c82019050919050565b7f227d000000000000000000000000000000000000000000000000000000000000600082015250565b600061483a60028361448c565b915061484582614804565b600282019050919050565b600061485b826146d7565b9150614867828661464c565b915061487282614795565b915061487e828561464c565b9150614889826147e1565b9150614895828461464c565b91506148a08261482d565b9150819050949350505050565b7f646174613a6170706c69636174696f6e2f6a736f6e3b6261736536342c000000600082015250565b60006148e3601d8361448c565b91506148ee826148ad565b601d82019050919050565b6000614904826148d6565b9150614910828461464c565b915081905092915050565b600061492782856145a7565b915061493382846145a7565b91508190509392505050565b7f4e487b7100000000000000000000000000000000000000000000000000000000600052603260045260246000fd5b600061497a828461464c565b915081905092915050565b7f4e487b7100000000000000000000000000000000000000000000000000000000600052601160045260246000fd5b60006149bf8261382e565b91507fffffffffffffffffffffffffffffffffffffffffffffffffffffffffffffffff8214156149f2576149f1614985565b5b600182019050919050565b7f45524337323155524953746f726167653a2055524920717565727920666f722060008201527f6e6f6e6578697374656e7420746f6b656e000000000000000000000000000000602082015250565b6000614a5960318361377e565b9150614a64826149fd565b604082019050919050565b60006020820190508181036000830152614a8881614a4c565b9050919050565b6000614a9b828561464c565b9150614aa7828461464c565b91508190509392505050565b60006040820190508181036000830152614acd81856137d3565b90508181036020830152614ae181846137d3565b90509392505050565b7f4552433732313a206f70657261746f7220717565727920666f72206e6f6e657860008201527f697374656e7420746f6b656e0000000000000000000000000000000000000000602082015250565b6000614b46602c8361377e565b9150614b5182614aea565b604082019050919050565b60006020820190508181036000830152614b7581614b39565b9050919050565b7f4552433732313a207472616e736665722066726f6d20696e636f72726563742060008201527f6f776e6572000000000000000000000000000000000000000000000000000000602082015250565b6000614bd860258361377e565b9150614be382614b7c565b604082019050919050565b60006020820190508181036000830152614c0781614bcb565b9050919050565b7f4552433732313a207472616e7366657220746f20746865207a65726f2061646460008201527f7265737300000000000000000000000000000000000000000000000000000000602082015250565b6000614c6a60248361377e565b9150614c7582614c0e565b604082019050919050565b60006020820190508181036000830152614c9981614c5d565b9050919050565b6000614cab8261382e565b9150614cb68361382e565b925082821015614cc957614cc8614985565b5b828203905092915050565b6000614cdf8261382e565b9150614cea8361382e565b9250827fffffffffffffffffffffffffffffffffffffffffffffffffffffffffffffffff03821115614d1f57614d1e614985565b5b828201905092915050565b7f4e487b7100000000000000000000000000000000000000000000000000000000600052601260045260246000fd5b6000614d648261382e565b9150614d6f8361382e565b925082614d7f57614d7e614d2a565b5b828204905092915050565b6000614d958261382e565b9150614da08361382e565b925082614db057614daf614d2a565b5b828206905092915050565b60006080820190508181036000830152614dd581876137d3565b90508181036020830152614de981866137d3565b90508181036040830152614dfd81856137d3565b9050614e0c6060830184613b57565b95945050505050565b6000614e208261382e565b9150614e2b8361382e565b9250817fffffffffffffffffffffffffffffffffffffffffffffffffffffffffffffffff0483118215151615614e6457614e63614985565b5b828202905092915050565b7f45524337323155524953746f726167653a2055524920736574206f66206e6f6e60008201527f6578697374656e7420746f6b656e000000000000000000000000000000000000602082015250565b6000614ecb602e8361377e565b9150614ed682614e6f565b604082019050919050565b60006020820190508181036000830152614efa81614ebe565b9050919050565b7f4552433732313a20617070726f766520746f2063616c6c657200000000000000600082015250565b6000614f3760198361377e565b9150614f4282614f01565b602082019050919050565b60006020820190508181036000830152614f6681614f2a565b9050919050565b60006060820190508181036000830152614f8781866137d3565b90508181036020830152614f9b81856137d3565b90508181036040830152614faf81846137d3565b9050949350505050565b7f4552433732313a207472616e7366657220746f206e6f6e20455243373231526560008201527f63656976657220696d706c656d656e7465720000000000000000000000000000602082015250565b600061501560328361377e565b915061502082614fb9565b604082019050919050565b6000602082019050818103600083015261504481615008565b9050919050565b7f4552433732314d657461646174613a2055524920717565727920666f72206e6f60008201527f6e6578697374656e7420746f6b656e0000000000000000000000000000000000602082015250565b60006150a7602f8361377e565b91506150b28261504b565b604082019050919050565b600060208201905081810360008301526150d68161509a565b9050919050565b600060608201905081810360008301526150f781866137d3565b90506151066020830185613b57565b818103604083015261511881846137d3565b9050949350505050565b600081519050919050565b600082825260208201905092915050565b600061514982615122565b615153818561512d565b935061516381856020860161378f565b61516c816137c2565b840191505092915050565b600060808201905061518c60008301876138c3565b61519960208301866138c3565b6151a66040830185613b57565b81810360608301526151b8818461513e565b905095945050505050565b6000815190506151d2816136e4565b92915050565b6000602082840312156151ee576151ed6136ae565b5b60006151fc848285016151c3565b91505092915050565b7f4552433732313a206d696e7420746f20746865207a65726f2061646472657373600082015250565b600061523b60208361377e565b915061524682615205565b602082019050919050565b6000602082019050818103600083015261526a8161522e565b9050919050565b7f4552433732313a20746f6b656e20616c7265616479206d696e74656400000000600082015250565b60006152a7601c8361377e565b91506152b282615271565b602082019050919050565b600060208201905081810360008301526152d68161529a565b905091905056fe0a2d2d2d2d2d2d2d2d2d2d2d2d2d2d2d2d2d2d2d2d2d2d2d2d2d2d2d2d2d2d2d2d2d2d2d2d2d2d2d2d2d2d2d2d2d2d2d2d2d2d2d2d2d2d2d2d2d2d2d2d2d2d2d2d2d2d2d2d2d2d2d2d2d2d2d2d2d2d2d2d2d2d2d2d2d2d2d2d2d2d2d2d2d2d2d2d2d2d2d2d2d2d2d2d2d2d2d2d2d2d2d2d0a5265676973746572696e672025732573206f6e2074686520636f6e7472616374207769746820746f6b656e49442025644142434445464748494a4b4c4d4e4f505152535455565758595a6162636465666768696a6b6c6d6e6f707172737475767778797a303132333435363738392b2fa2646970667358221220178f2d25d328dcc6b8075507559d49b91a2132869bdd8520892c96507492e62e64736f6c634300080a00333c73766720786d6c6e733d22687474703a2f2f7777772e77332e6f72672f323030302f737667222077696474683d2232373022206865696768743d22323730222066696c6c3d226e6f6e65223e3c706174682066696c6c3d2275726c282342292220643d224d302030683237307632373048307a222f3e3c646566733e3c66696c7465722069643d22412220636f6c6f722d696e746572706f6c6174696f6e2d66696c746572733d2273524742222066696c746572556e6974733d227573657253706163654f6e55736522206865696768743d22323730222077696474683d22323730223e3c666544726f70536861646f772064783d2230222064793d22312220737464446576696174696f6e3d22322220666c6f6f642d6f7061636974793d222e323235222077696474683d223230302522206865696768743d2232303025222f3e3c2f66696c7465723e3c2f646566733e3c706174682066696c6c3d226e6f6e6522207374726f6b653d222331444434464622207374726f6b652d77696474683d223622207374726f6b652d6d697465726c696d69743d2231302220643d224d32382e3932352c36332e3936312063302d31392e3337352c31352e3730382d33352e3038332c33352e3038322d33352e303833222f3e3c706174682066696c6c3d226e6f6e6522207374726f6b653d222335394646323222207374726f6b652d77696474683d223622207374726f6b652d6d697465726c696d69743d2231302220643d224d32322e3936352c36332e3935382063302d32322e3636322c31382e3337332d34312e3033362c34312e3033352d34312e303336222f3e3c706174682066696c6c3d226e6f6e6522207374726f6b653d222346464544313222207374726f6b652d77696474683d223622207374726f6b652d6d697465726c696d69743d2231302220643d224d31372e3338312c36332e39353863302d32352e3734362c32302e3837342d34362e36322c34362e3631392d34362e3632222f3e3c706174682066696c6c3d226e6f6e6522207374726f6b653d222346463946324322207374726f6b652d77696474683d223622207374726f6b652d6d697465726c696d69743d2231302220643d224d31312e3534382c36332e39353863302d32382e3936392c32332e3438342d35322e3435332c35322e3435322d35322e343533222f3e3c706174682066696c6c3d226e6f6e6522207374726f6b653d222346463239323922207374726f6b652d77696474683d223722207374726f6b652d6d697465726c696d69743d2231302220643d224d352e3239382c36332e39353843352e3239382c33312e3533372c33312e35382c352e3235352c36342c352e32353522202f3e3c706174682066696c6c3d226e6f6e6522207374726f6b653d222345333146464622207374726f6b652d77696474683d223622207374726f6b652d6d697465726c696d69743d2231302220643d224d34302e3133342c363463302d31332e3234342c31302e3733372d32332e3938322c32332e3938312d32332e39383222202f3e3c706174682066696c6c3d226e6f6e6522207374726f6b653d222333313331464622207374726f6b652d77696474683d223622207374726f6b652d6d697465726c696d69743d2231302220643d224d33342e3332322c363463302d31362e3435352c31332e3333392d32392e3739342c32392e3739332d32392e37393422202f3e3c646566733e3c6c696e6561724772616469656e742069643d2242222078313d2230222079313d2230222078323d22323730222079323d2232373022206772616469656e74556e6974733d227573657253706163654f6e557365223e3c73746f702073746f702d636f6c6f723d22236335656565222f3e3c73746f70206f66667365743d2231222073746f702d636f6c6f723d2223306364376634222073746f702d6f7061636974793d222e3939222f3e3c2f6c696e6561724772616469656e743e3c2f646566733e3c7465787420783d2233322e352220793d223233312220666f6e742d73697a653d223237222066696c6c3d2223666666222066696c7465723d2275726c282341292220666f6e742d66616d696c793d22506c7573204a616b617274612053616e732c44656a6156752053616e732c4e6f746f20436f6c6f7220456d6f6a692c4170706c6520436f6c6f7220456d6f6a692c73616e732d73657269662220666f6e742d7765696768743d22626f6c64223e",
  "linkReferences": {},
  "deployedLinkReferences": {}
}