{
  "_format": "hh-sol-artifact-1",
  "contractName": "Domains",
  "sourceName": "contracts/DomainsNFT.sol",
  "abi": [
    {
      "inputs": [
        {
          "internalType": "string",
          "name": "_tld",
          "type": "string"
        }
      ],
      "stateMutability": "payable",
      "type": "constructor"
    },
    {
      "inputs": [],
      "name": "AlreadyRegistered",
      "type": "error"
    },
    {
      "inputs": [
        {
          "internalType": "string",
          "name": "name",
          "type": "string"
        }
      ],
      "name": "InvalidName",
      "type": "error"
    },
    {
      "inputs": [],
      "name": "NotOwner",
      "type": "error"
    },
    {
      "anonymous": false,
      "inputs": [
        {
          "indexed": true,
          "internalType": "address",
          "name": "owner",
          "type": "address"
        },
        {
          "indexed": true,
          "internalType": "address",
          "name": "approved",
          "type": "address"
        },
        {
          "indexed": true,
          "internalType": "uint256",
          "name": "tokenId",
          "type": "uint256"
        }
      ],
      "name": "Approval",
      "type": "event"
    },
    {
      "anonymous": false,
      "inputs": [
        {
          "indexed": true,
          "internalType": "address",
          "name": "owner",
          "type": "address"
        },
        {
          "indexed": true,
          "internalType": "address",
          "name": "operator",
          "type": "address"
        },
        {
          "indexed": false,
          "internalType": "bool",
          "name": "approved",
          "type": "bool"
        }
      ],
      "name": "ApprovalForAll",
      "type": "event"
    },
    {
      "anonymous": false,
      "inputs": [
        {
          "indexed": true,
          "internalType": "address",
          "name": "from",
          "type": "address"
        },
        {
          "indexed": true,
          "internalType": "address",
          "name": "to",
          "type": "address"
        },
        {
          "indexed": true,
          "internalType": "uint256",
          "name": "tokenId",
          "type": "uint256"
        }
      ],
      "name": "Transfer",
      "type": "event"
    },
    {
      "inputs": [
        {
          "internalType": "address",
          "name": "to",
          "type": "address"
        },
        {
          "internalType": "uint256",
          "name": "tokenId",
          "type": "uint256"
        }
      ],
      "name": "approve",
      "outputs": [],
      "stateMutability": "nonpayable",
      "type": "function"
    },
    {
      "inputs": [
        {
          "internalType": "address",
          "name": "owner",
          "type": "address"
        }
      ],
      "name": "balanceOf",
      "outputs": [
        {
          "internalType": "uint256",
          "name": "",
          "type": "uint256"
        }
      ],
      "stateMutability": "view",
      "type": "function"
    },
    {
      "inputs": [
        {
          "internalType": "string",
          "name": "",
          "type": "string"
        }
      ],
      "name": "domainToOwner",
      "outputs": [
        {
          "internalType": "address",
          "name": "",
          "type": "address"
        }
      ],
      "stateMutability": "view",
      "type": "function"
    },
    {
      "inputs": [
        {
          "internalType": "string",
          "name": "name",
          "type": "string"
        }
      ],
      "name": "getAddress",
      "outputs": [
        {
          "internalType": "address",
          "name": "",
          "type": "address"
        }
      ],
      "stateMutability": "view",
      "type": "function"
    },
    {
      "inputs": [],
      "name": "getAllNames",
      "outputs": [
        {
          "internalType": "string[]",
          "name": "",
          "type": "string[]"
        }
      ],
      "stateMutability": "view",
      "type": "function"
    },
    {
      "inputs": [
        {
          "internalType": "uint256",
          "name": "tokenId",
          "type": "uint256"
        }
      ],
      "name": "getApproved",
      "outputs": [
        {
          "internalType": "address",
          "name": "",
          "type": "address"
        }
      ],
      "stateMutability": "view",
      "type": "function"
    },
    {
      "inputs": [],
      "name": "getDomain",
      "outputs": [
        {
          "internalType": "string",
          "name": "",
          "type": "string"
        }
      ],
      "stateMutability": "view",
      "type": "function"
    },
    {
      "inputs": [],
      "name": "i_owner",
      "outputs": [
        {
          "internalType": "address",
          "name": "",
          "type": "address"
        }
      ],
      "stateMutability": "view",
      "type": "function"
    },
    {
      "inputs": [
        {
          "internalType": "address",
          "name": "owner",
          "type": "address"
        },
        {
          "internalType": "address",
          "name": "operator",
          "type": "address"
        }
      ],
      "name": "isApprovedForAll",
      "outputs": [
        {
          "internalType": "bool",
          "name": "",
          "type": "bool"
        }
      ],
      "stateMutability": "view",
      "type": "function"
    },
    {
      "inputs": [],
      "name": "name",
      "outputs": [
        {
          "internalType": "string",
          "name": "",
          "type": "string"
        }
      ],
      "stateMutability": "view",
      "type": "function"
    },
    {
      "inputs": [
        {
          "internalType": "uint256",
          "name": "",
          "type": "uint256"
        }
      ],
      "name": "names",
      "outputs": [
        {
          "internalType": "string",
          "name": "",
          "type": "string"
        }
      ],
      "stateMutability": "view",
      "type": "function"
    },
    {
      "inputs": [
        {
          "internalType": "uint256",
          "name": "tokenId",
          "type": "uint256"
        }
      ],
      "name": "ownerOf",
      "outputs": [
        {
          "internalType": "address",
          "name": "",
          "type": "address"
        }
      ],
      "stateMutability": "view",
      "type": "function"
    },
    {
      "inputs": [
        {
          "internalType": "address",
          "name": "",
          "type": "address"
        }
      ],
      "name": "ownerToDomain",
      "outputs": [
        {
          "internalType": "string",
          "name": "",
          "type": "string"
        }
      ],
      "stateMutability": "view",
      "type": "function"
    },
    {
      "inputs": [
        {
          "internalType": "string",
          "name": "name",
          "type": "string"
        }
      ],
      "name": "price",
      "outputs": [
        {
          "internalType": "uint256",
          "name": "",
          "type": "uint256"
        }
      ],
      "stateMutability": "pure",
      "type": "function"
    },
    {
      "inputs": [
        {
          "internalType": "string",
          "name": "name",
          "type": "string"
        }
      ],
      "name": "register",
      "outputs": [],
      "stateMutability": "payable",
      "type": "function"
    },
    {
      "inputs": [
        {
          "internalType": "address",
          "name": "from",
          "type": "address"
        },
        {
          "internalType": "address",
          "name": "to",
          "type": "address"
        },
        {
          "internalType": "uint256",
          "name": "tokenId",
          "type": "uint256"
        }
      ],
      "name": "safeTransferFrom",
      "outputs": [],
      "stateMutability": "nonpayable",
      "type": "function"
    },
    {
      "inputs": [
        {
          "internalType": "address",
          "name": "from",
          "type": "address"
        },
        {
          "internalType": "address",
          "name": "to",
          "type": "address"
        },
        {
          "internalType": "uint256",
          "name": "tokenId",
          "type": "uint256"
        },
        {
          "internalType": "bytes",
          "name": "_data",
          "type": "bytes"
        }
      ],
      "name": "safeTransferFrom",
      "outputs": [],
      "stateMutability": "nonpayable",
      "type": "function"
    },
    {
      "inputs": [
        {
          "internalType": "address",
          "name": "operator",
          "type": "address"
        },
        {
          "internalType": "bool",
          "name": "approved",
          "type": "bool"
        }
      ],
      "name": "setApprovalForAll",
      "outputs": [],
      "stateMutability": "nonpayable",
      "type": "function"
    },
    {
      "inputs": [
        {
          "internalType": "bytes4",
          "name": "interfaceId",
          "type": "bytes4"
        }
      ],
      "name": "supportsInterface",
      "outputs": [
        {
          "internalType": "bool",
          "name": "",
          "type": "bool"
        }
      ],
      "stateMutability": "view",
      "type": "function"
    },
    {
      "inputs": [],
      "name": "symbol",
      "outputs": [
        {
          "internalType": "string",
          "name": "",
          "type": "string"
        }
      ],
      "stateMutability": "view",
      "type": "function"
    },
    {
      "inputs": [],
      "name": "tld",
      "outputs": [
        {
          "internalType": "string",
          "name": "",
          "type": "string"
        }
      ],
      "stateMutability": "view",
      "type": "function"
    },
    {
      "inputs": [
        {
          "internalType": "uint256",
          "name": "tokenId",
          "type": "uint256"
        }
      ],
      "name": "tokenURI",
      "outputs": [
        {
          "internalType": "string",
          "name": "",
          "type": "string"
        }
      ],
      "stateMutability": "view",
      "type": "function"
    },
    {
      "inputs": [
        {
          "internalType": "address",
          "name": "from",
          "type": "address"
        },
        {
          "internalType": "address",
          "name": "to",
          "type": "address"
        },
        {
          "internalType": "uint256",
          "name": "tokenId",
          "type": "uint256"
        }
      ],
      "name": "transferFrom",
      "outputs": [],
      "stateMutability": "nonpayable",
      "type": "function"
    },
    {
      "inputs": [
        {
          "internalType": "string",
          "name": "name",
          "type": "string"
        }
      ],
      "name": "valid",
      "outputs": [
        {
          "internalType": "bool",
          "name": "",
          "type": "bool"
        }
      ],
      "stateMutability": "pure",
      "type": "function"
    },
    {
      "inputs": [],
      "name": "withdraw",
      "outputs": [],
      "stateMutability": "nonpayable",
      "type": "function"
    }
  ],
  "bytecode": "0x60a060405260405180610680016040528061065f81526020016200523961065f91396009908051906020019062000038929190620002dc565b506040518060400160405280600d81526020017f3c2f746578743e3c2f7376673e00000000000000000000000000000000000000815250600a908051906020019062000086929190620002dc565b5060405162005898380380620058988339818101604052810190620000ac919062000529565b6040518060400160405280601781526020017f426974636f696e657261204e616d6520536572766963650000000000000000008152506040518060400160405280600381526020017f424e530000000000000000000000000000000000000000000000000000000000815250816000908051906020019062000130929190620002dc565b50806001908051906020019062000149929190620002dc565b5050503373ffffffffffffffffffffffffffffffffffffffff1660808173ffffffffffffffffffffffffffffffffffffffff16815250508060405160200162000193919062000617565b60405160208183030381529060405260089080519060200190620001b9929190620002dc565b50620002066040518060400160405280601881526020017f2573206e616d652073657276696365206465706c6f7965640000000000000000815250826200020d60201b62001a611760201c565b506200072f565b620002af8282604051602401620002269291906200068f565b6040516020818303038152906040527f4b5c4277000000000000000000000000000000000000000000000000000000007bffffffffffffffffffffffffffffffffffffffffffffffffffffffff19166020820180517bffffffffffffffffffffffffffffffffffffffffffffffffffffffff8381831617835250505050620002b360201b60201c565b5050565b60008151905060006a636f6e736f6c652e6c6f679050602083016000808483855afa5050505050565b828054620002ea90620006f9565b90600052602060002090601f0160209004810192826200030e57600085556200035a565b82601f106200032957805160ff19168380011785556200035a565b828001600101855582156200035a579182015b82811115620003595782518255916020019190600101906200033c565b5b5090506200036991906200036d565b5090565b5b80821115620003885760008160009055506001016200036e565b5090565b6000604051905090565b600080fd5b600080fd5b600080fd5b600080fd5b6000601f19601f8301169050919050565b7f4e487b7100000000000000000000000000000000000000000000000000000000600052604160045260246000fd5b620003f582620003aa565b810181811067ffffffffffffffff82111715620004175762000416620003bb565b5b80604052505050565b60006200042c6200038c565b90506200043a8282620003ea565b919050565b600067ffffffffffffffff8211156200045d576200045c620003bb565b5b6200046882620003aa565b9050602081019050919050565b60005b838110156200049557808201518184015260208101905062000478565b83811115620004a5576000848401525b50505050565b6000620004c2620004bc846200043f565b62000420565b905082815260208101848484011115620004e157620004e0620003a5565b5b620004ee84828562000475565b509392505050565b600082601f8301126200050e576200050d620003a0565b5b815162000520848260208601620004ab565b91505092915050565b60006020828403121562000542576200054162000396565b5b600082015167ffffffffffffffff8111156200056357620005626200039b565b5b6200057184828501620004f6565b91505092915050565b600081905092915050565b7f2e00000000000000000000000000000000000000000000000000000000000000600082015250565b6000620005bd6001836200057a565b9150620005ca8262000585565b600182019050919050565b600081519050919050565b6000620005ed82620005d5565b620005f981856200057a565b93506200060b81856020860162000475565b80840191505092915050565b60006200062482620005ae565b9150620006328284620005e0565b915081905092915050565b600082825260208201905092915050565b60006200065b82620005d5565b6200066781856200063d565b93506200067981856020860162000475565b6200068481620003aa565b840191505092915050565b60006040820190508181036000830152620006ab81856200064e565b90508181036020830152620006c181846200064e565b90509392505050565b7f4e487b7100000000000000000000000000000000000000000000000000000000600052602260045260246000fd5b600060028204905060018216806200071257607f821691505b60208210811415620007295762000728620006ca565b5b50919050565b608051614ae76200075260003960008181610a93015261125a0152614ae76000f3fe6080604052600436106101665760003560e01c806370a08231116100d1578063bf40fac11161008a578063e985e9c511610064578063e985e9c514610588578063f2c298be146105c5578063fb825e5f146105e1578063fe2c61981461060c57610166565b8063bf40fac1146104e3578063c87b56dd14610520578063dba6335f1461055d57610166565b806370a08231146103c157806395d89b41146103fe5780639791c09714610429578063a22cb46514610466578063b68d18091461048f578063b88d4fde146104ba57610166565b806337dab4221161012357806337dab4221461028d5780633ccfd60b146102ca57806342842e0e146102e15780634622ab031461030a5780635c5a96ba146103475780636352211e1461038457610166565b806301ffc9a71461016b57806306fdde03146101a8578063081812fc146101d3578063095ea7b31461021057806323b872dd146102395780632d55143214610262575b600080fd5b34801561017757600080fd5b50610192600480360381019061018d9190612f46565b610649565b60405161019f9190612f8e565b60405180910390f35b3480156101b457600080fd5b506101bd61072b565b6040516101ca9190613042565b60405180910390f35b3480156101df57600080fd5b506101fa60048036038101906101f5919061309a565b6107bd565b6040516102079190613108565b60405180910390f35b34801561021c57600080fd5b506102376004803603810190610232919061314f565b610842565b005b34801561024557600080fd5b50610260600480360381019061025b919061318f565b61095a565b005b34801561026e57600080fd5b506102776109ba565b6040516102849190613042565b60405180910390f35b34801561029957600080fd5b506102b460048036038101906102af9190613317565b610a48565b6040516102c19190613108565b60405180910390f35b3480156102d657600080fd5b506102df610a91565b005b3480156102ed57600080fd5b506103086004803603810190610303919061318f565b610bcb565b005b34801561031657600080fd5b50610331600480360381019061032c919061309a565b610beb565b60405161033e9190613042565b60405180910390f35b34801561035357600080fd5b5061036e60048036038101906103699190613360565b610c8b565b60405161037b9190613042565b60405180910390f35b34801561039057600080fd5b506103ab60048036038101906103a6919061309a565b610d2b565b6040516103b89190613108565b60405180910390f35b3480156103cd57600080fd5b506103e860048036038101906103e39190613360565b610ddd565b6040516103f5919061339c565b60405180910390f35b34801561040a57600080fd5b50610413610e95565b6040516104209190613042565b60405180910390f35b34801561043557600080fd5b50610450600480360381019061044b9190613417565b610f27565b60405161045d9190612f8e565b60405180910390f35b34801561047257600080fd5b5061048d60048036038101906104889190613490565b610fdb565b005b34801561049b57600080fd5b506104a4610ff1565b6040516104b19190613042565b60405180910390f35b3480156104c657600080fd5b506104e160048036038101906104dc9190613571565b611059565b005b3480156104ef57600080fd5b5061050a60048036038101906105059190613417565b6110bb565b6040516105179190613108565b60405180910390f35b34801561052c57600080fd5b506105476004803603810190610542919061309a565b611106565b6040516105549190613042565b60405180910390f35b34801561056957600080fd5b50610572611258565b60405161057f9190613108565b60405180910390f35b34801561059457600080fd5b506105af60048036038101906105aa91906135f4565b61127c565b6040516105bc9190612f8e565b60405180910390f35b6105df60048036038101906105da9190613417565b611310565b005b3480156105ed57600080fd5b506105f66117dd565b6040516106039190613740565b60405180910390f35b34801561061857600080fd5b50610633600480360381019061062e9190613417565b6119bb565b604051610640919061339c565b60405180910390f35b60007f80ac58cd000000000000000000000000000000000000000000000000000000007bffffffffffffffffffffffffffffffffffffffffffffffffffffffff1916827bffffffffffffffffffffffffffffffffffffffffffffffffffffffff1916148061071457507f5b5e139f000000000000000000000000000000000000000000000000000000007bffffffffffffffffffffffffffffffffffffffffffffffffffffffff1916827bffffffffffffffffffffffffffffffffffffffffffffffffffffffff1916145b80610724575061072382611afd565b5b9050919050565b60606000805461073a90613791565b80601f016020809104026020016040519081016040528092919081815260200182805461076690613791565b80156107b35780601f10610788576101008083540402835291602001916107b3565b820191906000526020600020905b81548152906001019060200180831161079657829003601f168201915b5050505050905090565b60006107c882611b67565b610807576040517f08c379a00000000000000000000000000000000000000000000000000000000081526004016107fe90613835565b60405180910390fd5b6004600083815260200190815260200160002060009054906101000a900473ffffffffffffffffffffffffffffffffffffffff169050919050565b600061084d82610d2b565b90508073ffffffffffffffffffffffffffffffffffffffff168373ffffffffffffffffffffffffffffffffffffffff1614156108be576040517f08c379a00000000000000000000000000000000000000000000000000000000081526004016108b5906138c7565b60405180910390fd5b8073ffffffffffffffffffffffffffffffffffffffff166108dd611bd3565b73ffffffffffffffffffffffffffffffffffffffff16148061090c575061090b81610906611bd3565b61127c565b5b61094b576040517f08c379a000000000000000000000000000000000000000000000000000000000815260040161094290613959565b60405180910390fd5b6109558383611bdb565b505050565b61096b610965611bd3565b82611c94565b6109aa576040517f08c379a00000000000000000000000000000000000000000000000000000000081526004016109a1906139eb565b60405180910390fd5b6109b5838383611d72565b505050565b600880546109c790613791565b80601f01602080910402602001604051908101604052809291908181526020018280546109f390613791565b8015610a405780601f10610a1557610100808354040283529160200191610a40565b820191906000526020600020905b815481529060010190602001808311610a2357829003601f168201915b505050505081565b600b818051602081018201805184825260208301602085012081835280955050505050506000915054906101000a900473ffffffffffffffffffffffffffffffffffffffff1681565b7f000000000000000000000000000000000000000000000000000000000000000073ffffffffffffffffffffffffffffffffffffffff163373ffffffffffffffffffffffffffffffffffffffff1614610b16576040517f30cd747100000000000000000000000000000000000000000000000000000000815260040160405180910390fd5b600047905060003373ffffffffffffffffffffffffffffffffffffffff1682604051610b4190613a3c565b60006040518083038185875af1925050503d8060008114610b7e576040519150601f19603f3d011682016040523d82523d6000602084013e610b83565b606091505b5050905080610bc7576040517f08c379a0000000000000000000000000000000000000000000000000000000008152600401610bbe90613a9d565b60405180910390fd5b5050565b610be683838360405180602001604052806000815250611059565b505050565b600d6020528060005260406000206000915090508054610c0a90613791565b80601f0160208091040260200160405190810160405280929190818152602001828054610c3690613791565b8015610c835780601f10610c5857610100808354040283529160200191610c83565b820191906000526020600020905b815481529060010190602001808311610c6657829003601f168201915b505050505081565b600c6020528060005260406000206000915090508054610caa90613791565b80601f0160208091040260200160405190810160405280929190818152602001828054610cd690613791565b8015610d235780601f10610cf857610100808354040283529160200191610d23565b820191906000526020600020905b815481529060010190602001808311610d0657829003601f168201915b505050505081565b6000806002600084815260200190815260200160002060009054906101000a900473ffffffffffffffffffffffffffffffffffffffff169050600073ffffffffffffffffffffffffffffffffffffffff168173ffffffffffffffffffffffffffffffffffffffff161415610dd4576040517f08c379a0000000000000000000000000000000000000000000000000000000008152600401610dcb90613b2f565b60405180910390fd5b80915050919050565b60008073ffffffffffffffffffffffffffffffffffffffff168273ffffffffffffffffffffffffffffffffffffffff161415610e4e576040517f08c379a0000000000000000000000000000000000000000000000000000000008152600401610e4590613bc1565b60405180910390fd5b600360008373ffffffffffffffffffffffffffffffffffffffff1673ffffffffffffffffffffffffffffffffffffffff168152602001908152602001600020549050919050565b606060018054610ea490613791565b80601f0160208091040260200160405190810160405280929190818152602001828054610ed090613791565b8015610f1d5780601f10610ef257610100808354040283529160200191610f1d565b820191906000526020600020905b815481529060010190602001808311610f0057829003601f168201915b5050505050905090565b60006003610f7884848080601f016020809104026020016040519081016040528093929190818152602001838380828437600081840152601f19601f82011690508083019250505050505050611fd9565b10158015610fd35750600a610fd084848080601f016020809104026020016040519081016040528093929190818152602001838380828437600081840152601f19601f82011690508083019250505050505050611fd9565b11155b905092915050565b610fed610fe6611bd3565b838361218e565b5050565b6060600c60003373ffffffffffffffffffffffffffffffffffffffff1673ffffffffffffffffffffffffffffffffffffffff1681526020019081526020016000206008604051602001611045929190613c80565b604051602081830303815290604052905090565b61106a611064611bd3565b83611c94565b6110a9576040517f08c379a00000000000000000000000000000000000000000000000000000000081526004016110a0906139eb565b60405180910390fd5b6110b5848484846122fb565b50505050565b6000600b83836040516110cf929190613cc9565b908152602001604051809103902060009054906101000a900473ffffffffffffffffffffffffffffffffffffffff16905092915050565b606061111182611b67565b611150576040517f08c379a000000000000000000000000000000000000000000000000000000000815260040161114790613d54565b60405180910390fd5b600060066000848152602001908152602001600020805461117090613791565b80601f016020809104026020016040519081016040528092919081815260200182805461119c90613791565b80156111e95780601f106111be576101008083540402835291602001916111e9565b820191906000526020600020905b8154815290600101906020018083116111cc57829003601f168201915b5050505050905060006111fa612357565b9050600081511415611210578192505050611253565b60008251111561124557808260405160200161122d929190613da5565b60405160208183030381529060405292505050611253565b61124e8461236e565b925050505b919050565b7f000000000000000000000000000000000000000000000000000000000000000081565b6000600560008473ffffffffffffffffffffffffffffffffffffffff1673ffffffffffffffffffffffffffffffffffffffff16815260200190815260200160002060008373ffffffffffffffffffffffffffffffffffffffff1673ffffffffffffffffffffffffffffffffffffffff16815260200190815260200160002060009054906101000a900460ff16905092915050565b600073ffffffffffffffffffffffffffffffffffffffff16600b838360405161133a929190613cc9565b908152602001604051809103902060009054906101000a900473ffffffffffffffffffffffffffffffffffffffff1673ffffffffffffffffffffffffffffffffffffffff16146113b6576040517f3a81d6fc00000000000000000000000000000000000000000000000000000000815260040160405180910390fd5b6113c08282610f27565b6114035781816040517f7f19f48d0000000000000000000000000000000000000000000000000000000081526004016113fa929190613df6565b60405180910390fd5b600061140f83836119bb565b905080341015611454576040517f08c379a000000000000000000000000000000000000000000000000000000000815260040161144b90613e66565b60405180910390fd5b60008383600860405160200161146c93929190613e86565b60405160208183030381529060405290506000600982600a60405160200161149693929190613eac565b604051602081830303815290604052905060006114b36007612415565b9050600061150487878080601f016020809104026020016040519081016040528093929190818152602001838380828437600081840152601f19601f82011690508083019250505050505050611fd9565b9050600061151182612423565b9050611605604051806060016040528060308152602001614a426030913989898080601f016020809104026020016040519081016040528093929190818152602001838380828437600081840152601f19601f820116905080830192505050505050506008805461158190613791565b80601f01602080910402602001604051908101604052809291908181526020018280546115ad90613791565b80156115fa5780601f106115cf576101008083540402835291602001916115fa565b820191906000526020600020905b8154815290600101906020018083116115dd57829003601f168201915b505050505086612584565b600061163b8661161487612626565b846040516020016116279392919061407f565b604051602081830303815290604052612626565b90506000816040516020016116509190614128565b60405160208183030381529060405290506116826040518060600160405280603981526020016149d0603991396127be565b6116c16040518060400160405280600e81526020017f46696e616c20746f6b656e55524900000000000000000000000000000000000081525082611a61565b6116e2604051806060016040528060398152602001614a09603991396127be565b6116ec3386612857565b6116f68582612875565b33600b8b8b604051611709929190613cc9565b908152602001604051809103902060006101000a81548173ffffffffffffffffffffffffffffffffffffffff021916908373ffffffffffffffffffffffffffffffffffffffff1602179055508989600c60003373ffffffffffffffffffffffffffffffffffffffff1673ffffffffffffffffffffffffffffffffffffffff16815260200190815260200160002091906117a3929190612db1565b506117ae60076128e9565b8989600d600088815260200190815260200160002091906117d0929190612db1565b5050505050505050505050565b606061181d6040518060400160405280601f81526020017f47657474696e6720616c6c206e616d65732066726f6d20636f6e7472616374008152506127be565b60006118296007612415565b67ffffffffffffffff811115611842576118416131ec565b5b60405190808252806020026020018201604052801561187557816020015b60608152602001906001900390816118605790505b50905060005b6118856007612415565b8110156119b357600d600082815260200190815260200160002080546118aa90613791565b80601f01602080910402602001604051908101604052809291908181526020018280546118d690613791565b80156119235780601f106118f857610100808354040283529160200191611923565b820191906000526020600020905b81548152906001019060200180831161190657829003601f168201915b505050505082828151811061193b5761193a61414a565b5b60200260200101819052506119a06040518060400160405280601781526020017f4e616d6520666f7220746f6b656e202564206973202573000000000000000000815250828484815181106119935761199261414a565b5b60200260200101516128ff565b80806119ab906141a8565b91505061187b565b508091505090565b600080611a0b84848080601f016020809104026020016040519081016040528093929190818152602001838380828437600081840152601f19601f82011690508083019250505050505050611fd9565b905060008111611a1a57600080fd5b6003811415611a34576706f05b59d3b20000915050611a5b565b6004811415611a4e57670429d069189e0000915050611a5b565b67016345785d8a00009150505b92915050565b611af98282604051602401611a779291906141f1565b6040516020818303038152906040527f4b5c4277000000000000000000000000000000000000000000000000000000007bffffffffffffffffffffffffffffffffffffffffffffffffffffffff19166020820180517bffffffffffffffffffffffffffffffffffffffffffffffffffffffff838183161783525050505061299e565b5050565b60007f01ffc9a7000000000000000000000000000000000000000000000000000000007bffffffffffffffffffffffffffffffffffffffffffffffffffffffff1916827bffffffffffffffffffffffffffffffffffffffffffffffffffffffff1916149050919050565b60008073ffffffffffffffffffffffffffffffffffffffff166002600084815260200190815260200160002060009054906101000a900473ffffffffffffffffffffffffffffffffffffffff1673ffffffffffffffffffffffffffffffffffffffff1614159050919050565b600033905090565b816004600083815260200190815260200160002060006101000a81548173ffffffffffffffffffffffffffffffffffffffff021916908373ffffffffffffffffffffffffffffffffffffffff160217905550808273ffffffffffffffffffffffffffffffffffffffff16611c4e83610d2b565b73ffffffffffffffffffffffffffffffffffffffff167f8c5be1e5ebec7d5bd14f71427d1e84f3dd0314c0f7b2291e5b200ac8c7c3b92560405160405180910390a45050565b6000611c9f82611b67565b611cde576040517f08c379a0000000000000000000000000000000000000000000000000000000008152600401611cd59061429a565b60405180910390fd5b6000611ce983610d2b565b90508073ffffffffffffffffffffffffffffffffffffffff168473ffffffffffffffffffffffffffffffffffffffff161480611d2b5750611d2a818561127c565b5b80611d6957508373ffffffffffffffffffffffffffffffffffffffff16611d51846107bd565b73ffffffffffffffffffffffffffffffffffffffff16145b91505092915050565b8273ffffffffffffffffffffffffffffffffffffffff16611d9282610d2b565b73ffffffffffffffffffffffffffffffffffffffff1614611de8576040517f08c379a0000000000000000000000000000000000000000000000000000000008152600401611ddf9061432c565b60405180910390fd5b600073ffffffffffffffffffffffffffffffffffffffff168273ffffffffffffffffffffffffffffffffffffffff161415611e58576040517f08c379a0000000000000000000000000000000000000000000000000000000008152600401611e4f906143be565b60405180910390fd5b611e638383836129c7565b611e6e600082611bdb565b6001600360008573ffffffffffffffffffffffffffffffffffffffff1673ffffffffffffffffffffffffffffffffffffffff1681526020019081526020016000206000828254611ebe91906143de565b925050819055506001600360008473ffffffffffffffffffffffffffffffffffffffff1673ffffffffffffffffffffffffffffffffffffffff1681526020019081526020016000206000828254611f159190614412565b92505081905550816002600083815260200190815260200160002060006101000a81548173ffffffffffffffffffffffffffffffffffffffff021916908373ffffffffffffffffffffffffffffffffffffffff160217905550808273ffffffffffffffffffffffffffffffffffffffff168473ffffffffffffffffffffffffffffffffffffffff167fddf252ad1be2c89b69c2b068fc378daa952ba7f163c4a11628f55a4df523b3ef60405160405180910390a4611fd48383836129cc565b505050565b60008060008084519050600092505b808210156121835760008583815181106120055761200461414a565b5b602001015160f81c60f81b9050608060f81b817effffffffffffffffffffffffffffffffffffffffffffffffffffffffffffff191610156120545760018361204d9190614412565b925061216f565b60e060f81b817effffffffffffffffffffffffffffffffffffffffffffffffffffffffffffff191610156120965760028361208f9190614412565b925061216e565b60f060f81b817effffffffffffffffffffffffffffffffffffffffffffffffffffffffffffff191610156120d8576003836120d19190614412565b925061216d565b60f8801b817effffffffffffffffffffffffffffffffffffffffffffffffffffffffffffff19161015612119576004836121129190614412565b925061216c565b60fc60f81b817effffffffffffffffffffffffffffffffffffffffffffffffffffffffffffff1916101561215b576005836121549190614412565b925061216b565b6006836121689190614412565b92505b5b5b5b5b50828061217b906141a8565b935050611fe8565b829350505050919050565b8173ffffffffffffffffffffffffffffffffffffffff168373ffffffffffffffffffffffffffffffffffffffff1614156121fd576040517f08c379a00000000000000000000000000000000000000000000000000000000081526004016121f4906144b4565b60405180910390fd5b80600560008573ffffffffffffffffffffffffffffffffffffffff1673ffffffffffffffffffffffffffffffffffffffff16815260200190815260200160002060008473ffffffffffffffffffffffffffffffffffffffff1673ffffffffffffffffffffffffffffffffffffffff16815260200190815260200160002060006101000a81548160ff0219169083151502179055508173ffffffffffffffffffffffffffffffffffffffff168373ffffffffffffffffffffffffffffffffffffffff167f17307eab39ab6107e8899845ad3d59bd9653f200f220920489ca2b5937696c31836040516122ee9190612f8e565b60405180910390a3505050565b612306848484611d72565b612312848484846129d1565b612351576040517f08c379a000000000000000000000000000000000000000000000000000000000815260040161234890614546565b60405180910390fd5b50505050565b606060405180602001604052806000815250905090565b606061237982611b67565b6123b8576040517f08c379a00000000000000000000000000000000000000000000000000000000081526004016123af906145d8565b60405180910390fd5b60006123c2612357565b905060008151116123e2576040518060200160405280600081525061240d565b806123ec84612423565b6040516020016123fd929190613da5565b6040516020818303038152906040525b915050919050565b600081600001549050919050565b6060600082141561246b576040518060400160405280600181526020017f3000000000000000000000000000000000000000000000000000000000000000815250905061257f565b600082905060005b6000821461249d578080612486906141a8565b915050600a826124969190614627565b9150612473565b60008167ffffffffffffffff8111156124b9576124b86131ec565b5b6040519080825280601f01601f1916602001820160405280156124eb5781602001600182028036833780820191505090505b5090505b600085146125785760018261250491906143de565b9150600a856125139190614658565b603061251f9190614412565b60f81b8183815181106125355761253461414a565b5b60200101907effffffffffffffffffffffffffffffffffffffffffffffffffffffffffffff1916908160001a905350600a856125719190614627565b94506124ef565b8093505050505b919050565b6126208484848460405160240161259e9493929190614689565b6040516020818303038152906040527f9fd009f5000000000000000000000000000000000000000000000000000000007bffffffffffffffffffffffffffffffffffffffffffffffffffffffff19166020820180517bffffffffffffffffffffffffffffffffffffffffffffffffffffffff838183161783525050505061299e565b50505050565b6060600082519050600081141561264f57604051806020016040528060008152509150506127b9565b600060036002836126609190614412565b61266a9190614627565b600461267691906146e3565b905060006020826126879190614412565b67ffffffffffffffff8111156126a05761269f6131ec565b5b6040519080825280601f01601f1916602001820160405280156126d25781602001600182028036833780820191505090505b5090506000604051806060016040528060408152602001614a72604091399050600181016020830160005b868110156127765760038101905062ffffff818a015116603f8160121c168401518060081b905060ff603f83600c1c1686015116810190508060081b905060ff603f8360061c1686015116810190508060081b905060ff603f831686015116810190508060e01b905080845260048401935050506126fd565b50600386066001811461279057600281146127a0576127ab565b613d3d60f01b60028303526127ab565b603d60f81b60018303525b508484525050819450505050505b919050565b612854816040516024016127d29190613042565b6040516020818303038152906040527f41304fac000000000000000000000000000000000000000000000000000000007bffffffffffffffffffffffffffffffffffffffffffffffffffffffff19166020820180517bffffffffffffffffffffffffffffffffffffffffffffffffffffffff838183161783525050505061299e565b50565b612871828260405180602001604052806000815250612b59565b5050565b61287e82611b67565b6128bd576040517f08c379a00000000000000000000000000000000000000000000000000000000081526004016128b4906147af565b60405180910390fd5b806006600084815260200190815260200160002090805190602001906128e4929190612e37565b505050565b6001816000016000828254019250508190555050565b612999838383604051602401612917939291906147cf565b6040516020818303038152906040527fa3f5c739000000000000000000000000000000000000000000000000000000007bffffffffffffffffffffffffffffffffffffffffffffffffffffffff19166020820180517bffffffffffffffffffffffffffffffffffffffffffffffffffffffff838183161783525050505061299e565b505050565b60008151905060006a636f6e736f6c652e6c6f679050602083016000808483855afa5050505050565b505050565b505050565b60006129f28473ffffffffffffffffffffffffffffffffffffffff16612bb4565b15612b4c578373ffffffffffffffffffffffffffffffffffffffff1663150b7a02612a1b611bd3565b8786866040518563ffffffff1660e01b8152600401612a3d9493929190614869565b6020604051808303816000875af1925050508015612a7957506040513d601f19601f82011682018060405250810190612a7691906148ca565b60015b612afc573d8060008114612aa9576040519150601f19603f3d011682016040523d82523d6000602084013e612aae565b606091505b50600081511415612af4576040517f08c379a0000000000000000000000000000000000000000000000000000000008152600401612aeb90614546565b60405180910390fd5b805181602001fd5b63150b7a0260e01b7bffffffffffffffffffffffffffffffffffffffffffffffffffffffff1916817bffffffffffffffffffffffffffffffffffffffffffffffffffffffff191614915050612b51565b600190505b949350505050565b612b638383612bd7565b612b7060008484846129d1565b612baf576040517f08c379a0000000000000000000000000000000000000000000000000000000008152600401612ba690614546565b60405180910390fd5b505050565b6000808273ffffffffffffffffffffffffffffffffffffffff163b119050919050565b600073ffffffffffffffffffffffffffffffffffffffff168273ffffffffffffffffffffffffffffffffffffffff161415612c47576040517f08c379a0000000000000000000000000000000000000000000000000000000008152600401612c3e90614943565b60405180910390fd5b612c5081611b67565b15612c90576040517f08c379a0000000000000000000000000000000000000000000000000000000008152600401612c87906149af565b60405180910390fd5b612c9c600083836129c7565b6001600360008473ffffffffffffffffffffffffffffffffffffffff1673ffffffffffffffffffffffffffffffffffffffff1681526020019081526020016000206000828254612cec9190614412565b92505081905550816002600083815260200190815260200160002060006101000a81548173ffffffffffffffffffffffffffffffffffffffff021916908373ffffffffffffffffffffffffffffffffffffffff160217905550808273ffffffffffffffffffffffffffffffffffffffff16600073ffffffffffffffffffffffffffffffffffffffff167fddf252ad1be2c89b69c2b068fc378daa952ba7f163c4a11628f55a4df523b3ef60405160405180910390a4612dad600083836129cc565b5050565b828054612dbd90613791565b90600052602060002090601f016020900481019282612ddf5760008555612e26565b82601f10612df857803560ff1916838001178555612e26565b82800160010185558215612e26579182015b82811115612e25578235825591602001919060010190612e0a565b5b509050612e339190612ebd565b5090565b828054612e4390613791565b90600052602060002090601f016020900481019282612e655760008555612eac565b82601f10612e7e57805160ff1916838001178555612eac565b82800160010185558215612eac579182015b82811115612eab578251825591602001919060010190612e90565b5b509050612eb99190612ebd565b5090565b5b80821115612ed6576000816000905550600101612ebe565b5090565b6000604051905090565b600080fd5b600080fd5b60007fffffffff0000000000000000000000000000000000000000000000000000000082169050919050565b612f2381612eee565b8114612f2e57600080fd5b50565b600081359050612f4081612f1a565b92915050565b600060208284031215612f5c57612f5b612ee4565b5b6000612f6a84828501612f31565b91505092915050565b60008115159050919050565b612f8881612f73565b82525050565b6000602082019050612fa36000830184612f7f565b92915050565b600081519050919050565b600082825260208201905092915050565b60005b83811015612fe3578082015181840152602081019050612fc8565b83811115612ff2576000848401525b50505050565b6000601f19601f8301169050919050565b600061301482612fa9565b61301e8185612fb4565b935061302e818560208601612fc5565b61303781612ff8565b840191505092915050565b6000602082019050818103600083015261305c8184613009565b905092915050565b6000819050919050565b61307781613064565b811461308257600080fd5b50565b6000813590506130948161306e565b92915050565b6000602082840312156130b0576130af612ee4565b5b60006130be84828501613085565b91505092915050565b600073ffffffffffffffffffffffffffffffffffffffff82169050919050565b60006130f2826130c7565b9050919050565b613102816130e7565b82525050565b600060208201905061311d60008301846130f9565b92915050565b61312c816130e7565b811461313757600080fd5b50565b60008135905061314981613123565b92915050565b6000806040838503121561316657613165612ee4565b5b60006131748582860161313a565b925050602061318585828601613085565b9150509250929050565b6000806000606084860312156131a8576131a7612ee4565b5b60006131b68682870161313a565b93505060206131c78682870161313a565b92505060406131d886828701613085565b9150509250925092565b600080fd5b600080fd5b7f4e487b7100000000000000000000000000000000000000000000000000000000600052604160045260246000fd5b61322482612ff8565b810181811067ffffffffffffffff82111715613243576132426131ec565b5b80604052505050565b6000613256612eda565b9050613262828261321b565b919050565b600067ffffffffffffffff821115613282576132816131ec565b5b61328b82612ff8565b9050602081019050919050565b82818337600083830152505050565b60006132ba6132b584613267565b61324c565b9050828152602081018484840111156132d6576132d56131e7565b5b6132e1848285613298565b509392505050565b600082601f8301126132fe576132fd6131e2565b5b813561330e8482602086016132a7565b91505092915050565b60006020828403121561332d5761332c612ee4565b5b600082013567ffffffffffffffff81111561334b5761334a612ee9565b5b613357848285016132e9565b91505092915050565b60006020828403121561337657613375612ee4565b5b60006133848482850161313a565b91505092915050565b61339681613064565b82525050565b60006020820190506133b1600083018461338d565b92915050565b600080fd5b600080fd5b60008083601f8401126133d7576133d66131e2565b5b8235905067ffffffffffffffff8111156133f4576133f36133b7565b5b6020830191508360018202830111156134105761340f6133bc565b5b9250929050565b6000806020838503121561342e5761342d612ee4565b5b600083013567ffffffffffffffff81111561344c5761344b612ee9565b5b613458858286016133c1565b92509250509250929050565b61346d81612f73565b811461347857600080fd5b50565b60008135905061348a81613464565b92915050565b600080604083850312156134a7576134a6612ee4565b5b60006134b58582860161313a565b92505060206134c68582860161347b565b9150509250929050565b600067ffffffffffffffff8211156134eb576134ea6131ec565b5b6134f482612ff8565b9050602081019050919050565b600061351461350f846134d0565b61324c565b9050828152602081018484840111156135305761352f6131e7565b5b61353b848285613298565b509392505050565b600082601f830112613558576135576131e2565b5b8135613568848260208601613501565b91505092915050565b6000806000806080858703121561358b5761358a612ee4565b5b60006135998782880161313a565b94505060206135aa8782880161313a565b93505060406135bb87828801613085565b925050606085013567ffffffffffffffff8111156135dc576135db612ee9565b5b6135e887828801613543565b91505092959194509250565b6000806040838503121561360b5761360a612ee4565b5b60006136198582860161313a565b925050602061362a8582860161313a565b9150509250929050565b600081519050919050565b600082825260208201905092915050565b6000819050602082019050919050565b600082825260208201905092915050565b600061367c82612fa9565b6136868185613660565b9350613696818560208601612fc5565b61369f81612ff8565b840191505092915050565b60006136b68383613671565b905092915050565b6000602082019050919050565b60006136d682613634565b6136e0818561363f565b9350836020820285016136f285613650565b8060005b8581101561372e578484038952815161370f85826136aa565b945061371a836136be565b925060208a019950506001810190506136f6565b50829750879550505050505092915050565b6000602082019050818103600083015261375a81846136cb565b905092915050565b7f4e487b7100000000000000000000000000000000000000000000000000000000600052602260045260246000fd5b600060028204905060018216806137a957607f821691505b602082108114156137bd576137bc613762565b5b50919050565b7f4552433732313a20617070726f76656420717565727920666f72206e6f6e657860008201527f697374656e7420746f6b656e0000000000000000000000000000000000000000602082015250565b600061381f602c83612fb4565b915061382a826137c3565b604082019050919050565b6000602082019050818103600083015261384e81613812565b9050919050565b7f4552433732313a20617070726f76616c20746f2063757272656e74206f776e6560008201527f7200000000000000000000000000000000000000000000000000000000000000602082015250565b60006138b1602183612fb4565b91506138bc82613855565b604082019050919050565b600060208201905081810360008301526138e0816138a4565b9050919050565b7f4552433732313a20617070726f76652063616c6c6572206973206e6f74206f7760008201527f6e6572206e6f7220617070726f76656420666f7220616c6c0000000000000000602082015250565b6000613943603883612fb4565b915061394e826138e7565b604082019050919050565b6000602082019050818103600083015261397281613936565b9050919050565b7f4552433732313a207472616e736665722063616c6c6572206973206e6f74206f60008201527f776e6572206e6f7220617070726f766564000000000000000000000000000000602082015250565b60006139d5603183612fb4565b91506139e082613979565b604082019050919050565b60006020820190508181036000830152613a04816139c8565b9050919050565b600081905092915050565b50565b6000613a26600083613a0b565b9150613a3182613a16565b600082019050919050565b6000613a4782613a19565b9150819050919050565b7f4661696c656420746f207769746864726177204d617469630000000000000000600082015250565b6000613a87601883612fb4565b9150613a9282613a51565b602082019050919050565b60006020820190508181036000830152613ab681613a7a565b9050919050565b7f4552433732313a206f776e657220717565727920666f72206e6f6e657869737460008201527f656e7420746f6b656e0000000000000000000000000000000000000000000000602082015250565b6000613b19602983612fb4565b9150613b2482613abd565b604082019050919050565b60006020820190508181036000830152613b4881613b0c565b9050919050565b7f4552433732313a2062616c616e636520717565727920666f7220746865207a6560008201527f726f206164647265737300000000000000000000000000000000000000000000602082015250565b6000613bab602a83612fb4565b9150613bb682613b4f565b604082019050919050565b60006020820190508181036000830152613bda81613b9e565b9050919050565b600081905092915050565b60008190508160005260206000209050919050565b60008154613c0e81613791565b613c188186613be1565b94506001821660008114613c335760018114613c4457613c77565b60ff19831686528186019350613c77565b613c4d85613bec565b60005b83811015613c6f57815481890152600182019150602081019050613c50565b838801955050505b50505092915050565b6000613c8c8285613c01565b9150613c988284613c01565b91508190509392505050565b6000613cb08385613be1565b9350613cbd838584613298565b82840190509392505050565b6000613cd6828486613ca4565b91508190509392505050565b7f45524337323155524953746f726167653a2055524920717565727920666f722060008201527f6e6f6e6578697374656e7420746f6b656e000000000000000000000000000000602082015250565b6000613d3e603183612fb4565b9150613d4982613ce2565b604082019050919050565b60006020820190508181036000830152613d6d81613d31565b9050919050565b6000613d7f82612fa9565b613d898185613be1565b9350613d99818560208601612fc5565b80840191505092915050565b6000613db18285613d74565b9150613dbd8284613d74565b91508190509392505050565b6000613dd58385612fb4565b9350613de2838584613298565b613deb83612ff8565b840190509392505050565b60006020820190508181036000830152613e11818486613dc9565b90509392505050565b7f4e6f7420656e6f756768204d6174696320706169640000000000000000000000600082015250565b6000613e50601583612fb4565b9150613e5b82613e1a565b602082019050919050565b60006020820190508181036000830152613e7f81613e43565b9050919050565b6000613e93828587613ca4565b9150613e9f8284613c01565b9150819050949350505050565b6000613eb88286613c01565b9150613ec48285613d74565b9150613ed08284613c01565b9150819050949350505050565b7f7b226e616d65223a202200000000000000000000000000000000000000000000600082015250565b6000613f13600a83613be1565b9150613f1e82613edd565b600a82019050919050565b7f222c20226465736372697074696f6e223a20224120646f6d61696e206f6e207460008201527f686520424e532028426974636f696e657261204e616d6520536572766963652960208201527f222c2022696d616765223a2022646174613a696d6167652f7376672b786d6c3b60408201527f6261736536342c00000000000000000000000000000000000000000000000000606082015250565b6000613fd1606783613be1565b9150613fdc82613f29565b606782019050919050565b7f222c226c656e677468223a220000000000000000000000000000000000000000600082015250565b600061401d600c83613be1565b915061402882613fe7565b600c82019050919050565b7f227d000000000000000000000000000000000000000000000000000000000000600082015250565b6000614069600283613be1565b915061407482614033565b600282019050919050565b600061408a82613f06565b91506140968286613d74565b91506140a182613fc4565b91506140ad8285613d74565b91506140b882614010565b91506140c48284613d74565b91506140cf8261405c565b9150819050949350505050565b7f646174613a6170706c69636174696f6e2f6a736f6e3b6261736536342c000000600082015250565b6000614112601d83613be1565b915061411d826140dc565b601d82019050919050565b600061413382614105565b915061413f8284613d74565b915081905092915050565b7f4e487b7100000000000000000000000000000000000000000000000000000000600052603260045260246000fd5b7f4e487b7100000000000000000000000000000000000000000000000000000000600052601160045260246000fd5b60006141b382613064565b91507fffffffffffffffffffffffffffffffffffffffffffffffffffffffffffffffff8214156141e6576141e5614179565b5b600182019050919050565b6000604082019050818103600083015261420b8185613009565b9050818103602083015261421f8184613009565b90509392505050565b7f4552433732313a206f70657261746f7220717565727920666f72206e6f6e657860008201527f697374656e7420746f6b656e0000000000000000000000000000000000000000602082015250565b6000614284602c83612fb4565b915061428f82614228565b604082019050919050565b600060208201905081810360008301526142b381614277565b9050919050565b7f4552433732313a207472616e736665722066726f6d20696e636f72726563742060008201527f6f776e6572000000000000000000000000000000000000000000000000000000602082015250565b6000614316602583612fb4565b9150614321826142ba565b604082019050919050565b6000602082019050818103600083015261434581614309565b9050919050565b7f4552433732313a207472616e7366657220746f20746865207a65726f2061646460008201527f7265737300000000000000000000000000000000000000000000000000000000602082015250565b60006143a8602483612fb4565b91506143b38261434c565b604082019050919050565b600060208201905081810360008301526143d78161439b565b9050919050565b60006143e982613064565b91506143f483613064565b92508282101561440757614406614179565b5b828203905092915050565b600061441d82613064565b915061442883613064565b9250827fffffffffffffffffffffffffffffffffffffffffffffffffffffffffffffffff0382111561445d5761445c614179565b5b828201905092915050565b7f4552433732313a20617070726f766520746f2063616c6c657200000000000000600082015250565b600061449e601983612fb4565b91506144a982614468565b602082019050919050565b600060208201905081810360008301526144cd81614491565b9050919050565b7f4552433732313a207472616e7366657220746f206e6f6e20455243373231526560008201527f63656976657220696d706c656d656e7465720000000000000000000000000000602082015250565b6000614530603283612fb4565b915061453b826144d4565b604082019050919050565b6000602082019050818103600083015261455f81614523565b9050919050565b7f4552433732314d657461646174613a2055524920717565727920666f72206e6f60008201527f6e6578697374656e7420746f6b656e0000000000000000000000000000000000602082015250565b60006145c2602f83612fb4565b91506145cd82614566565b604082019050919050565b600060208201905081810360008301526145f1816145b5565b9050919050565b7f4e487b7100000000000000000000000000000000000000000000000000000000600052601260045260246000fd5b600061463282613064565b915061463d83613064565b92508261464d5761464c6145f8565b5b828204905092915050565b600061466382613064565b915061466e83613064565b92508261467e5761467d6145f8565b5b828206905092915050565b600060808201905081810360008301526146a38187613009565b905081810360208301526146b78186613009565b905081810360408301526146cb8185613009565b90506146da606083018461338d565b95945050505050565b60006146ee82613064565b91506146f983613064565b9250817fffffffffffffffffffffffffffffffffffffffffffffffffffffffffffffffff048311821515161561473257614731614179565b5b828202905092915050565b7f45524337323155524953746f726167653a2055524920736574206f66206e6f6e60008201527f6578697374656e7420746f6b656e000000000000000000000000000000000000602082015250565b6000614799602e83612fb4565b91506147a48261473d565b604082019050919050565b600060208201905081810360008301526147c88161478c565b9050919050565b600060608201905081810360008301526147e98186613009565b90506147f8602083018561338d565b818103604083015261480a8184613009565b9050949350505050565b600081519050919050565b600082825260208201905092915050565b600061483b82614814565b614845818561481f565b9350614855818560208601612fc5565b61485e81612ff8565b840191505092915050565b600060808201905061487e60008301876130f9565b61488b60208301866130f9565b614898604083018561338d565b81810360608301526148aa8184614830565b905095945050505050565b6000815190506148c481612f1a565b92915050565b6000602082840312156148e0576148df612ee4565b5b60006148ee848285016148b5565b91505092915050565b7f4552433732313a206d696e7420746f20746865207a65726f2061646472657373600082015250565b600061492d602083612fb4565b9150614938826148f7565b602082019050919050565b6000602082019050818103600083015261495c81614920565b9050919050565b7f4552433732313a20746f6b656e20616c7265616479206d696e74656400000000600082015250565b6000614999601c83612fb4565b91506149a482614963565b602082019050919050565b600060208201905081810360008301526149c88161498c565b905091905056fe0a2d2d2d2d2d2d2d2d2d2d2d2d2d2d2d2d2d2d2d2d2d2d2d2d2d2d2d2d2d2d2d2d2d2d2d2d2d2d2d2d2d2d2d2d2d2d2d2d2d2d2d2d2d2d2d2d2d2d2d2d2d2d2d2d2d2d2d2d2d2d2d2d2d2d2d2d2d2d2d2d2d2d2d2d2d2d2d2d2d2d2d2d2d2d2d2d2d2d2d2d2d2d2d2d2d2d2d2d2d2d2d2d0a5265676973746572696e672025732573206f6e2074686520636f6e7472616374207769746820746f6b656e49442025644142434445464748494a4b4c4d4e4f505152535455565758595a6162636465666768696a6b6c6d6e6f707172737475767778797a303132333435363738392b2fa26469706673582212205adc4852ac57190c27504a330b73c660bed4b4ce0d778d54bbe4ce2bde24a39a64736f6c634300080a00333c73766720786d6c6e733d22687474703a2f2f7777772e77332e6f72672f323030302f737667222077696474683d2232373022206865696768743d22323730222066696c6c3d226e6f6e65223e3c706174682066696c6c3d2275726c282342292220643d224d302030683237307632373048307a222f3e3c646566733e3c66696c7465722069643d22412220636f6c6f722d696e746572706f6c6174696f6e2d66696c746572733d2273524742222066696c746572556e6974733d227573657253706163654f6e55736522206865696768743d22323730222077696474683d22323730223e3c666544726f70536861646f772064783d2230222064793d22312220737464446576696174696f6e3d22322220666c6f6f642d6f7061636974793d222e323235222077696474683d223230302522206865696768743d2232303025222f3e3c2f66696c7465723e3c2f646566733e3c706174682066696c6c3d226e6f6e6522207374726f6b653d222331444434464622207374726f6b652d77696474683d223622207374726f6b652d6d697465726c696d69743d2231302220643d224d32382e3932352c36332e3936312063302d31392e3337352c31352e3730382d33352e3038332c33352e3038322d33352e303833222f3e3c706174682066696c6c3d226e6f6e6522207374726f6b653d222335394646323222207374726f6b652d77696474683d223622207374726f6b652d6d697465726c696d69743d2231302220643d224d32322e3936352c36332e3935382063302d32322e3636322c31382e3337332d34312e3033362c34312e3033352d34312e303336222f3e3c706174682066696c6c3d226e6f6e6522207374726f6b653d222346464544313222207374726f6b652d77696474683d223622207374726f6b652d6d697465726c696d69743d2231302220643d224d31372e3338312c36332e39353863302d32352e3734362c32302e3837342d34362e36322c34362e3631392d34362e3632222f3e3c706174682066696c6c3d226e6f6e6522207374726f6b653d222346463946324322207374726f6b652d77696474683d223622207374726f6b652d6d697465726c696d69743d2231302220643d224d31312e3534382c36332e39353863302d32382e3936392c32332e3438342d35322e3435332c35322e3435322d35322e343533222f3e3c706174682066696c6c3d226e6f6e6522207374726f6b653d222346463239323922207374726f6b652d77696474683d223722207374726f6b652d6d697465726c696d69743d2231302220643d224d352e3239382c36332e39353843352e3239382c33312e3533372c33312e35382c352e3235352c36342c352e32353522202f3e3c706174682066696c6c3d226e6f6e6522207374726f6b653d222345333146464622207374726f6b652d77696474683d223622207374726f6b652d6d697465726c696d69743d2231302220643d224d34302e3133342c363463302d31332e3234342c31302e3733372d32332e3938322c32332e3938312d32332e39383222202f3e3c706174682066696c6c3d226e6f6e6522207374726f6b653d222333313331464622207374726f6b652d77696474683d223622207374726f6b652d6d697465726c696d69743d2231302220643d224d33342e3332322c363463302d31362e3435352c31332e3333392d32392e3739342c32392e3739332d32392e37393422202f3e3c646566733e3c6c696e6561724772616469656e742069643d2242222078313d2230222079313d2230222078323d22323730222079323d2232373022206772616469656e74556e6974733d227573657253706163654f6e557365223e3c73746f702073746f702d636f6c6f723d22236335656565222f3e3c73746f70206f66667365743d2231222073746f702d636f6c6f723d2223306364376634222073746f702d6f7061636974793d222e3939222f3e3c2f6c696e6561724772616469656e743e3c2f646566733e3c7465787420783d2233322e352220793d223233312220666f6e742d73697a653d223237222066696c6c3d2223666666222066696c7465723d2275726c282341292220666f6e742d66616d696c793d22506c7573204a616b617274612053616e732c44656a6156752053616e732c4e6f746f20436f6c6f7220456d6f6a692c4170706c6520436f6c6f7220456d6f6a692c73616e732d73657269662220666f6e742d7765696768743d22626f6c64223e",
  "linkReferences": {},
  "deployedLinkReferences": {}
}